:020000040800F2
:1000000000500020A1100008210D0008270D000855
:100010002D0D0008330D0008390D00080000000008
:100020000000000000000000000000003F0D00087C
:100030004B0D000800000000570D0008630D00087C
:10004000E9100008E9100008E9100008E9100008AC
:10005000E9100008E9100008E9100008E91000089C
:10006000E9100008E9100008E9100008E91000088C
:10007000E9100008E9100008E9100008710D0008F7
:10008000E9100008E9100008E9100008E91000086C
:10009000E9100008E9100008E9100008E91000085C
:1000A000E9100008E9100008E9100008E91000084C
:1000B000E9100008850D0008E9100008E9100008A3
:1000C000E9100008E9100008E9100008E91000082C
:1000D000E9100008990D0008E9100008E91000086F
:1000E000E9100008E9100008E9100008000000000D
:1000F0000000000000000000000000000000000000
:0C01000000000000000000005FF808F1A3
:10010C0010B5054C237833B9044B13B10448AFF345
:10011C0000800123237010BD0C00002000000000A3
:10012C007445000808B5034B1BB103490348AFF3F2
:10013C00008008BD0000000010000020744500087D
:10014C0080F0004002E000BF81F0004142001FBF80
:10015C005FEA410392EA030F7FEA226C7FEA236C89
:10016C006AD04FEA1262D2EB1363C1BFD21841407E
:10017C0048404140B8BF5B42192B88BF704710F014
:10018C00004F40F4000020F07F4018BF404211F0B7
:10019C00004F41F4000121F07F4118BF494292EA1F
:1001AC00030F3FD0A2F1010241FA03FC10EB0C004B
:1001BC00C3F1200301FA03F100F0004302D54942D8
:1001CC0060EB4000B0F5000F13D3B0F1807F06D385
:1001DC0040084FEA310102F10102FE2A51D2B1F17D
:1001EC00004F40EBC25008BF20F0010040EA030072
:1001FC007047490040EB0000013A28BFB0F5000FF2
:10020C00EDD2B0FA80FCACF1080CB2EB0C0200FAA7
:10021C000CF0AABF00EBC25052421843BCBFD040F6
:10022C001843704792F0000F81F4000106BF80F470
:10023C0000000132013BB5E74FEA41037FEA226C33
:10024C0018BF7FEA236C21D092EA030F04D092F0FE
:10025C00000F08BF0846704790EA010F1CBF002032
:10026C00704712F07F4F04D1400028BF40F000408F
:10027C00704712F100723CBF00F50000704700F0AF
:10028C00004343F0FE4040F4000070477FEA2262D6
:10029C0016BF08467FEA23630146420206BF5FEAA7
:1002AC00412390EA010F40F4800070474FF00003A7
:1002BC0004E000BF10F0004348BF40425FEA000C6E
:1002CC0008BF704743F0964301464FF000001CE016
:1002DC0050EA010208BF70474FF000030AE000BF6C
:1002EC0050EA010208BF704711F0004302D54042AA
:1002FC0061EB41015FEA010C02BF8446014600201C
:10030C0043F0B64308BFA3F18053A3F50003BCFA36
:10031C008CF2083AA3EBC25310DB01FA02FC6344E3
:10032C0000FA02FCC2F12002BCF1004F20FA02F2EA
:10033C0043EB020008BF20F00100704702F12002DD
:10034C0001FA02FCC2F1200250EA4C0021FA02F23E
:10035C0043EB020008BF20EADC70704742000ED26B
:10036C00B2F1FE4F0BD34FF09E03B3EB126209D4E4
:10037C004FEA002343F0004323FA02F070474FF09A
:10038C000000704712F1610F01D1420202D14FF00F
:10039C00FF3070474FF00000704700BF80B584B04D
:1003AC0000AF3B1D00221A605A609A60184B194A24
:1003BC001A60174B00229A60154B00221A73144BCB
:1003CC0000221A75124B4FF46022DA61104B002296
:1003DC005A600F4B01221A610D4800F0D7FE0346FC
:1003EC00002B01D000F0E0FB05237B600123BB60F8
:1003FC000023FB603B1D1946054801F059F80346E4
:10040C00002B01D000F0D0FB00BF1037BD4680BDE3
:10041C00280000200024014080B588B000AF78602F
:10042C0007F1100300221A605A609A60DA607B6848
:10043C001B68144A934221D1134B9B69124A43F413
:10044C0000739361104B9B6903F40073FB60FB68B2
:10045C000D4B9B690C4A43F0040393610A4B9B6957
:10046C0003F00403BB60BB6820233B6103237B6167
:10047C0007F110031946054801F030FD00BF203785
:10048C00BD4680BD00240140001002400008014020
:10049C0080B483B000AF0346FB80084B1B6800227E
:1004AC005A6200BF054B1B685A6AFB889A42F9D303
:1004BC0000BF00BF0C37BD4680BC7047D400002085
:1004CC0080B586B000AF0023FB753B1D00221A607F
:1004DC005A609A60DA6002237B600123BB600223BE
:1004EC003B610023FB603B1D19462A4801F0F6FCDA
:1004FC0000220221274801F08CFE142000F022FE7D
:10050C0001220221234801F084FE1E20FFF7C0FFC8
:10051C000023BB600123FB603B1D19461D4801F005
:10052C00DDFC2820FFF7B4FF02211A4801F05AFE27
:10053C000346002B0BD15020FFF7AAFF02211548D0
:10054C0001F050FE0346002B01D00123FB7500F097
:10055C00EFFD0346104A136000F0EAFD03460F4A14
:10056C00136004E000F0E4FD03460C4A1360022122
:10057C00084801F037FE0346002B06D0064B1B68DB
:10058C009A1C064B1B689A42ECD8FB7D1846183710
:10059C00BD4680BD000801406000002064000020C2
:1005AC0080B582B000AF0023FB7163E000F0C0FDAA
:1005BC000346344A136000F0BBFD0346324A136015
:1005CC0004E000F0B5FD03462F4A136002212F48CA
:1005DC0001F008FE0346002B06D12A4B1B689A1C1F
:1005EC00294B1B689A42ECD82820FFF751FF0221B7
:1005FC00264801F0F7FD0346002B0ED1FB79C3F121
:10060C000703012202FA03F35BB2DB435AB297F9F8
:10061C00063013405BB2BB710BE0FB79C3F10703EF
:10062C00012202FA03F35AB297F9063013435BB274
:10063C00BB7100F07DFD0346124A136000F078FD9B
:10064C000346114A136004E000F072FD03460E4AA3
:10065C00136002210D4801F0C5FD0346002B06D0A6
:10066C00084B1B689A1C084B1B689A42ECD8FB7908
:10067C000133FB71FB79072B98D9BB7918460837E6
:10068C00BD4680BD600000206400002000080140D1
:10069C0080B582B000AF7860FFF712FFFFF780FFE4
:1006AC0003461A461F4B1A70FFF77AFF03461A4689
:1006BC001D4B1A70FFF774FF03461A461B4B1A703A
:1006CC00FFF76EFF03461A46194B1A70FFF768FFC7
:1006DC0003469AB2174B1A80164B1B881946114BBE
:1006EC001B781A46104B1B781344104A127813448B
:1006FC000F4A1278134499420FD10C4B1B781846B1
:10070C00FFF7D4FD02467B681A60064B1B7818462F
:10071C00FFF7CCFD02467B685A6000BF0837BD4628
:10072C0080BD00BF58000020590000205A00002056
:10073C005B0000205C00002080B582B000AF0C4B49
:10074C005B690B4A43F001035361094B5B6903F08E
:10075C0001037B607B68002200210F2001F0F1F87F
:10076C000F2001F00AF900BF0837BD4680BD00BF5D
:10077C000010024080B588B000AF07F110030022D2
:10078C001A605A609A60DA60454B9B69444A43F0A0
:10079C0010039361424B9B6903F01003FB60FB68F1
:1007AC003F4B9B693E4A43F0200393613C4B9B6952
:1007BC0003F02003BB60BB68394B9B69384A43F09C
:1007CC0004039361364B9B6903F004037B607B68E5
:1007DC00334B9B69324A43F008039361304B9B695E
:1007EC0003F008033B603B6800224FF400512D4896
:1007FC0001F00FFD002206212B4801F00AFD00221A
:10080C004FF46441294801F004FD4FF400533B615F
:10081C0001237B610023BB610223FB6107F1100301
:10082C001946204801F05AFB06233B6101237B61EA
:10083C000023BB610223FB6107F1100319461A4820
:10084C0001F04CFB02233B6100237B610023BB6165
:10085C0007F110031946154801F040FB4FF4806373
:10086C003B6101237B610023BB610223FB6107F128
:10087C00100319460D4801F031FB4FF460433B6106
:10088C0001237B610223BB610223FB6107F110038F
:10089C001946064801F022FB00BF2037BD4680BD3B
:1008AC00001002400010014000080140000C014003
:1008BC0080B500AF00F014FC00F008F9FFF75AFF08
:1008CC00FFF73AFF00F03EFB00F0C0FA00F06EFAC2
:1008DC00FFF764FD6D4802F013FA40F2DC5000F0B3
:1008EC0031FC08226A496B4802F0D5FE04216A48A3
:1008FC0001F0A7FC6948FFF7CBFE0221684801F024
:10090C0071FC03461A46674B1A70674800F016FDD7
:10091C00654800F0C1FD0346644A1360634B1B68D5
:10092C00634AA2FB03235B09604A13605D4B1B788F
:10093C00DAB2604B1A705D4B1B68DAB25D4B5A70C1
:10094C00564B1B681846FFF709FD0346DAB2594BA4
:10095C009A70524B5B681846FFF700FD0346DAB2FB
:10096C00544BDA70544B1A78524B1A71534B1A7809
:10097C00504B5A71524B1A784E4B9A714FF4FA7085
:10098C0000F0E0FB4FF47A7308224A49414802F028
:10099C00FFFD03461A464B4B1A704A4B1B78002B33
:1009AC0003D104213C4801F04CFC394B1A78464BDE
:1009BC001A70374B5A78404B1A70354B9A783F4B1C
:1009CC001A70334BDA783E4B1A703F4B1B78002B66
:1009DC003FD1394B1B78012B08D1374B1B781A466A
:1009EC004FF480412E4801F014FC07E0324B1B7889
:1009FC001A464FF480412A4801F00BFC2F4B1B7810
:100A0C00012B08D12D4B1B781A464FF4004124487A
:100A1C0001F0FFFB07E0294B1B781A464FF400410D
:100A2C001F4801F0F6FB264B1B78012B08D1244BF9
:100A3C001B781A464FF40051194801F0EAFB55E7B0
:100A4C001F4B1B781A464FF40051154801F0E1FB7F
:100A5C004CE71D4B1B78012B7FF448AF114B1B78D7
:100A6C00DBB2012B08D10F4B1B78DBB21A460221EB
:100A7C000B4801F0CEFB39E70A4B1B78DBB21A4668
:100A8C000221074801F0C5FB30E700BFD40000206D
:100A9C007000002064010020000801406800002064
:100AAC00000C014081000020280000208400002060
:100ABC00CDCCCCCC78000020880000208900002010
:100ACC008A000020800000208B00002080B594B0AC
:100ADC0000AF07F1280328220021184603F018FD67
:100AEC0007F1140300221A605A609A60DA601A61E6
:100AFC003B1D00221A605A609A60DA600123BB62C7
:100B0C004FF48033FB6200233B630123BB6302235E
:100B1C007B644FF48033BB644FF4E013FB6407F148
:100B2C002803184601F0A6FB0346002B01D000F069
:100B3C003BF80F237B610223BB610023FB614FF465
:100B4C0080633B624FF480637B6207F114030221E4
:100B5C00184601F011FE0346002B01D000F024F8DA
:100B6C0002237B604FF48043FB603B1D184601F071
:100B7C00C1FF0346002B01D000F016F800BF503720
:100B8C00BD4680BD80B582B000AF78607B681B68C5
:100B9C00044A934201D100F0B9FA00BF0837BD46B0
:100BAC0080BD00BF0004004080B400AF72B600BF2F
:100BBC00FEE7000080B485B000AF154B9B69144A6A
:100BCC0043F001039361124B9B6903F00103BB607B
:100BDC00BB680F4BDB690E4A43F08053D3610C4B5F
:100BEC00DB6903F080537B607B680A4B5B68FB60BE
:100BFC00FB6823F0E063FB60FB6843F00073FB6071
:100C0C00044AFB68536000BF1437BD4680BC704774
:100C1C00001002400000014080B58EB000AF78603B
:100C2C000023FB620023BB62002387F83330344B74
:100C3C00DB69334A43F00203D361314BDB6903F0C8
:100C4C000203FB60FB6807F1100207F11403114665
:100C5C00184601F001FF3B6AFB62FB6A002B03D1D3
:100C6C0001F0D2FE786304E001F0CEFE03465B0097
:100C7C007B637B6B234AA2FB03239B0C013BBB6274
:100C8C00214B224A1A60204B40F2E732DA601E4AAE
:100C9C00BB6A53601C4B00221A611B4B00229A60EA
:100CAC00194B00229A61184801F0DAFF034687F8C5
:100CBC00333097F83330002B1BD1134802F06AF80D
:100CCC00034687F8333097F83330002B11D11D20B1
:100CDC0000F053FE7B680F2B08D8002279681D208A
:100CEC0000F02FFE0A4A7B68136002E0012387F8AC
:100CFC00333097F8333018463837BD4680BD00BFC7
:100D0C000010024083DE1B438C00002000040040D6
:100D1C000400002080B400AFFEE780B400AFFEE713
:100D2C0080B400AFFEE780B400AFFEE780B400AF44
:100D3C00FEE780B400AF00BFBD4680BC704780B4F6
:100D4C0000AF00BFBD4680BC704780B400AF00BF91
:100D5C00BD4680BC704780B400AF00BFBD4680BCB0
:100D6C007047000080B500AF024800F083FF00BF61
:100D7C0080BD00BFAC01002080B500AF024802F07E
:100D8C005BF800BF80BD00BF8C00002080B500AFB9
:100D9C00024802F0A5FC00BF80BD00BF640100202A
:100DAC0080B400AF00BFBD4680BC704780B586B034
:100DBC0000AF07F1080300221A605A609A60DA60EB
:100DCC003B4600221A605A601E4B1F4A1A601D4B8C
:100DDC0047225A601B4B00229A601A4B4FF6FE7248
:100DEC00DA60184B00221A61164B00225A61154B1F
:100DFC0000229A61134801F033FF0346002B01D007
:100E0C00FFF7D2FE4FF48053BB6007F1080319467D
:100E1C000C4802F019F90346002B01D0FFF7C4FE71
:100E2C0000233B6000237B603B461946054802F0DB
:100E3C00EFFA0346002B01D0FFF7B6FE00BF1837C0
:100E4C00BD4680BDD4000020002C014080B586B08A
:100E5C0000AF07F1080300221A605A609A60DA604A
:100E6C003B4600221A605A601D4B4FF080421A60BC
:100E7C001B4B47225A601A4B00229A60184B4FF6B4
:100E8C00FE72DA60164B00221A61154B00229A6131
:100E9C00134801F0E5FE0346002B01D0FFF784FE5A
:100EAC004FF48053BB6007F1080319460C4802F05D
:100EBC00CBF80346002B01D0FFF776FE00233B60F6
:100ECC0000237B603B461946054802F0A1FA034615
:100EDC00002B01D0FFF768FE00BF1837BD4680BD60
:100EEC001C01002080B485B000AF78607B681B6863
:100EFC00124A93420CD1124B9B69114A43F4006382
:100F0C0093610F4B9B6903F40063FB60FB6810E07B
:100F1C007B681B68B3F1804F0BD1094BDB69084A26
:100F2C0043F00103D361064BDB6903F00103BB60A3
:100F3C00BB6800BF1437BD4680BC7047002C014015
:100F4C000010024080B500AF114B124A1A60104BD2
:100F5C004FF4E1325A600E4B00229A600C4B002287
:100F6C00DA600B4B00221A61094B0C225A61084BB8
:100F7C0000229A61064B0022DA61054802F0B8FAA9
:100F8C000346002B01D0FFF70FFE00BF80BD00BF52
:100F9C00640100200038014080B588B000AF786053
:100FAC0007F1100300221A605A609A60DA607B68BD
:100FBC001B68334A93425FD1324B9B69314A43F4ED
:100FCC00804393612F4B9B6903F48043FB60FB6868
:100FDC002C4B9B692B4A43F004039361294B9B696F
:100FEC0003F00403BB60BB684FF400733B61022346
:100FFC007B610323FB6107F110031946224800F0C3
:10100C006DFF4FF480633B6100237B610023BB6168
:10101C0007F1100319461C4800F060FF1B4B1C4ADB
:10102C001A601A4B00225A60184B00229A60174B18
:10103C008022DA60154B00221A61144B00225A618F
:10104C00124B20229A61114B0022DA610F4800F0FA
:10105C00A3FC0346002B01D0FFF7A6FD7B680B4ACF
:10106C00DA630A4A7B68536200220021252000F0D3
:10107C0068FC252000F081FC00BF2037BD4680BDF8
:10108C00003801400010024000080140AC01002073
:10109C0058000240FFF784FE0B480C490C4A002311
:1010AC0002E0D458C4500433C4188C42F9D3094A12
:1010BC00094C002301E013600432A242FBD303F07D
:1010CC002FFAFFF7F5FB7047000000200C00002002
:1010DC00C04500080C000020F4010020FEE70000D1
:1010EC0080B500AF084B1B68074A43F01003136030
:1010FC00032000F01BFC0F20FFF78EFDFFF75AFDBD
:10110C000023184680BD00BF0020024080B400AF11
:10111C00054B1B781A46054B1B681344034A136096
:10112C0000BFBD4680BC704708000020F0010020C5
:10113C0080B400AF024B1B681846BD4680BC70479C
:10114C00F001002080B584B000AF7860FFF7F0FFAD
:10115C00B8607B68FB60FB68B3F1FF3F05D00A4BBE
:10116C001B781A46FB681344FB6000BFFFF7E0FFD7
:10117C000246BB68D31AFA689A42F7D800BF00BF80
:10118C001037BD4680BD00BF0800002080B586B07A
:10119C0000AF78600023FB7500233B610023BB602C
:1011AC000023FB607B68002B01D10123BEE07B6830
:1011BC009B68002B7B689B6A002B09D17B68002203
:1011CC00DA627B68002283F824207868FFF724F920
:1011DC00786800F0BFFA0346FB757B689B6A03F0E6
:1011EC001003002B40F09980FB7D002B40F0958084
:1011FC007B689B6A23F4885323F0020343F00202BA
:10120C007B689A627B685A687B68DB691A437B68E7
:10121C001B7B5B001343BA681343BB607B689B6802
:10122C00B3F5807F03D07B689B68012B02D14FF410
:10123C00807300E000233A6913433B617B681B7D9C
:10124C00012B19D17B681B7B002B09D17B689B6917
:10125C00013B5A033B69134343F400633B610BE0CE
:10126C007B689B6A43F020027B689A627B68DB6A2E
:10127C0043F001027B68DA627B681B685B6823F4CD
:10128C0069417B681B683A690A435A607B681B6832
:10129C009A68284B13407A681268B9680B439360BC
:1012AC007B689B68B3F5807F03D07B689B68012BC0
:1012BC0004D17B681B69013B1B05FB607B681B68C9
:1012CC00DB6A23F470017B681B68FA680A43DA62F4
:1012DC007B681B689A68184B1340BA689A420BD10A
:1012EC007B680022DA627B689B6A23F0030343F07D
:1012FC0001027B689A6218E07B689B6A23F01203F8
:10130C0043F010027B689A627B68DB6A43F001024F
:10131C007B68DA620123FB7507E07B689B6A43F00C
:10132C0010027B689A620123FB75FB7D1846183707
:10133C00BD4680BDFDF7E1FFFE0E1FFF80B584B0FA
:10134C0000AF78600023FB737B6893F82430012B8B
:10135C0001D1022398E07B68012283F8242078686D
:10136C0000F09EF90346FB73FB7B002B40F087805B
:10137C007B689B6A23F4407323F0010343F480726F
:10138C007B689A627B681B68414A934205D1414B4A
:10139C005B6803F47023002B15D17B689B6A23F4E4
:1013AC0080127B689A627B681B685B6803F48063BD
:1013BC00002B26D07B689B6A23F4405343F4805265
:1013CC007B689A621DE07B689B6A43F480127B68A1
:1013DC009A627B681B682F4A934204D07B681B6817
:1013EC002B4A93420DD12B4B5B6803F48063002B8B
:1013FC0007D07B689B6A23F4405343F480527B688C
:10140C009A627B689B6A03F48053002B06D07B683E
:10141C00DB6A23F006027B68DA6202E07B6800225A
:10142C00DA627B68002283F824207B681B686FF0EB
:10143C0002021A607B681B689B6803F46023B3F597
:10144C00602F13D17B681B68114A934205D1114B55
:10145C005B6803F47023002B08D17B681B689A68C7
:10146C007B681B6842F4A0029A600CE07B681B68E6
:10147C009A687B681B6842F480129A6003E07B6870
:10148C00002283F82420FB7B18461037BD4680BD14
:10149C00002801400024014080B483B000AF786084
:1014AC007B681B68DB6C18460C37BD4680BC7047EC
:1014BC0080B485B000AF786039600023FB730023E3
:1014CC00BB607B6893F82430012B01D10223DCE054
:1014DC007B68012283F824203B685B68062B1CD8B0
:1014EC007B681B68596B3B685A6813469B00134416
:1014FC00053B1F2202FA03F3DB4319403B681868D3
:10150C003B685A6813469B001344053B00FA03F2F0
:10151C007B681B680A435A633CE03B685B680C2B96
:10152C001CD87B681B68196B3B685A6813469B0078
:10153C001344233B1F2202FA03F3DB4319403B689D
:10154C0018683B685A6813469B001344233B00FA07
:10155C0003F27B681B680A431A631BE07B681B68F9
:10156C00D96A3B685A6813469B001344413B1F22BF
:10157C0002FA03F3DB4319403B6818683B685A686E
:10158C0013469B001344413B00FA03F27B681B6833
:10159C000A43DA623B681B68092B1CD97B681B6801
:1015AC00D9683B681A6813465B0013441E3B07223C
:1015BC0002FA03F3DB4319403B6898683B681A68EE
:1015CC0013465B0013441E3B00FA03F27B681B6856
:1015DC000A43DA6019E07B681B6819693B681A6872
:1015EC0013465B001344072202FA03F3DB43194052
:1015FC003B6898683B681A6813465B00134400FA12
:10160C0003F27B681B680A431A613B681B68102B4A
:10161C0003D03B681B68112B32D17B681B681D4AB9
:10162C00934225D17B681B689B6803F40003002B55
:10163C0026D17B681B689A687B681B6842F40002A1
:10164C009A603B681B68102B1AD1134B1B68134A0A
:10165C00A2FB03239A0C13469B0013445B00BB6054
:10166C0002E0BB68013BBB60BB68002BF9D107E013
:10167C007B689B6A43F020027B689A620123FB73B0
:10168C007B68002283F82420FB7B18461437BD4668
:10169C0080BC7047002401400000002083DE1B4307
:1016AC0080B584B000AF78600023FB600023BB6082
:1016BC007B681B689B6803F00103012B40D07B689F
:1016CC001B689A687B681B6842F001029A601F4B8A
:1016DC001B681F4AA2FB03239B0CBB6002E0BB6888
:1016EC00013BBB60BB68002BF9D1FFF721FDF86013
:1016FC001FE0FFF71DFD0246FB68D31A022B18D919
:10170C007B681B689B6803F00103012B11D07B687D
:10171C009B6A43F010027B689A627B68DB6A43F039
:10172C0001027B68DA627B68002283F824200123A3
:10173C0007E07B681B689B6803F00103012BD8D181
:10174C00002318461037BD4680BD00BF00000020A6
:10175C0083DE1B4380B584B000AF78600023FB6050
:10176C007B681B689B6803F00103012B2ED17B68FF
:10177C001B689A687B681B6822F001029A60FFF76D
:10178C00D7FCF8601BE0FFF7D3FC0246FB68D31ACA
:10179C00022B14D97B681B689B6803F00103012B97
:1017AC000DD17B689B6A43F010027B689A627B6860
:1017BC00DB6A43F001027B68DA62012307E07B6895
:1017CC001B689B6803F00103012BDCD00023184637
:1017DC001037BD4680BD000080B485B000AF786086
:1017EC007B6803F00703FB600C4BDB68BB60BA68DB
:1017FC004FF6FF031340BB60FB681A02BB68134330
:10180C0043F0BF6343F40033BB60044ABB68D3604E
:10181C0000BF1437BD4680BC704700BF00ED00E030
:10182C0080B400AF044BDB681B0A03F007031846B7
:10183C00BD4680BC704700BF00ED00E080B483B0B3
:10184C0000AF0346FB7197F90730002B0BDBFB79DC
:10185C0003F01F02064997F907305B09012000FAD3
:10186C0002F241F8232000BF0C37BD4680BC704704
:10187C0000E100E080B483B000AF03463960FB7137
:10188C0097F90730002B0ADB3B68DAB20C4997F961
:10189C0007301201D2B20B4483F800230AE03B68F4
:1018AC00DAB20849FB7903F00F03043B1201D2B200
:1018BC000B441A7600BF0C37BD4680BC704700BF86
:1018CC0000E100E000ED00E080B489B000AFF8600A
:1018DC00B9607A60FB6803F00703FB61FB69C3F135
:1018EC000703042B28BF0423BB61FB690433062BBD
:1018FC0002D9FB69033B00E000237B614FF0FF3210
:10190C00BB6902FA03F3DA43BB681A407B699A405D
:10191C004FF0FF317B6901FA03F3D9437B680B402D
:10192C00134318462437BD4680BC704780B582B03F
:10193C0000AF78607868FFF74FFF00BF0837BD46EF
:10194C0080BD80B586B000AF0346B9607A60FB738A
:10195C0000237B61FFF764FF78617A68B968786966
:10196C00FFF7B2FF024697F90F3011461846FFF702
:10197C0081FF00BF1837BD4680BD80B582B000AF77
:10198C000346FB7197F907301846FFF757FF00BF66
:10199C000837BD4680BD000080B485B000AF7860CC
:1019AC000023FB607B68002B01D1012343E07B68A3
:1019BC001B681A46224B1344224AA2FB03231B0921
:1019CC009A007B681A647B681F4ADA637B68022280
:1019DC0083F821207B681B681B68FB60FB6823F481
:1019EC007F5323F03003FB607B685A687B689B68ED
:1019FC001A437B68DB681A437B681B691A437B6854
:101A0C005B691A437B689B691A437B68DB691343E8
:101A1C00FA681343FB607B681B68FA681A607B6882
:101A2C0000229A637B68012283F821207B680022C4
:101A3C0083F82020002318461437BD4680BC70471D
:101A4C00F8FFFDBFCDCCCCCC0000024080B586B0F9
:101A5C0000AFF860B9607A603B600023FB75FB68EF
:101A6C0093F82030012B01D102234BE0FB680122BB
:101A7C0083F82020FB6893F82130DBB2012B3AD19C
:101A8C00FB68022283F82120FB6800229A63FB6822
:101A9C001B681A68FB681B6822F001021A603B681D
:101AAC007A68B968F86800F0EBF9FB68DB6A002B20
:101ABC0008D0FB681B681A68FB681B6842F00E02B2
:101ACC001A600FE0FB681B681A68FB681B6822F041
:101ADC0004021A60FB681B681A68FB681B6842F0FA
:101AEC000A021A60FB681B681A68FB681B6842F0E4
:101AFC0001021A6005E0FB68002283F82020022313
:101B0C00FB75FB7D18461837BD4680BD80B485B08B
:101B1C0000AF78600023FB737B6893F82130DBB255
:101B2C00022B08D07B6804229A637B68002283F81E
:101B3C002020012320E07B681B681A687B681B68E7
:101B4C0022F00E021A607B681B681A687B681B689F
:101B5C0022F001021A607B681A6C7B68DB6B012136
:101B6C0001FA02F25A607B68012283F821207B681B
:101B7C00002283F82020FB7B18461437BD4680BC1E
:101B8C007047000080B584B000AF78600023FB7311
:101B9C007B6893F82130DBB2022B05D07B680422E2
:101BAC009A630123FB7351E07B681B681A687B689E
:101BBC001B6822F00E021A607B681B681A687B682F
:101BCC001B6822F001021A607B681B68224A934250
:101BDC0029D07B681B68214A934222D07B681B6802
:101BEC001F4A93421AD07B681B681E4A934212D03C
:101BFC007B681B681C4A93420AD07B681B681B4A93
:101C0C00934202D14FF480130EE04FF080730BE03F
:101C1C004FF4803308E04FF4805305E04FF48073A9
:101C2C0002E0102300E00123114A53607B6801227B
:101C3C0083F821207B68002283F820207B685B6B73
:101C4C00002B03D07B685B6B78689847FB7B18464E
:101C5C001037BD4680BD00BF080002401C0002408A
:101C6C003000024044000240580002406C00024028
:101C7C000000024080B584B000AF78607B68DB6BFD
:101C8C001B68FB607B681B681B68BB607B681B6CFC
:101C9C0004229A40FB681340002B4FD0BB6803F022
:101CAC000403002B4AD07B681B681B6803F02003DD
:101CBC00002B07D17B681B681A687B681B6822F0B5
:101CCC0004021A607B681B68664A934229D07B68C1
:101CDC001B68654A934222D07B681B68634A934217
:101CEC001AD07B681B68624A934212D07B681B68CF
:101CFC00604A93420AD07B681B685F4A934202D1C8
:101D0C004FF480030EE04FF080630BE04FF4802320
:101D1C0008E04FF4804305E04FF4806302E0402379
:101D2C0000E00423554A53607B68DB6A002B00F00B
:101D3C0094807B68DB6A786898478EE07B681B6CC4
:101D4C0002229A40FB681340002B56D0BB6803F06C
:101D5C000203002B51D07B681B681B6803F0200327
:101D6C00002B0BD17B681B681A687B681B6822F000
:101D7C000A021A607B68012283F821207B681B68A9
:101D8C00384A934229D07B681B68374A934222D049
:101D9C007B681B68354A93421AD07B681B68344AAF
:101DAC00934212D07B681B68324A93420AD07B68FC
:101DBC001B68314A934202D14FF400130EE04FF0EE
:101DCC0000730BE04FF4003308E04FF4005305E0D0
:101DDC004FF4007302E0202300E00223274A5360F3
:101DEC007B68002283F820207B689B6A002B34D010
:101DFC007B689B6A786898472FE07B681B6C08228D
:101E0C009A40FB681340002B28D0BB6803F00803F2
:101E1C00002B23D07B681B681A687B681B6822F038
:101E2C000E021A607B681A6C7B68DB6B012101FA6D
:101E3C0002F25A607B6801229A637B68012283F864
:101E4C0021207B68002283F820207B681B6B002BF1
:101E5C0004D07B681B6B7868984700BF00BF1037B5
:101E6C00BD4680BD080002401C000240300002400C
:101E7C0044000240580002406C0002400000024046
:101E8C0080B485B000AFF860B9607A603B60FB68E5
:101E9C001A6CFB68DB6B012101FA02F25A60FB68D9
:101EAC001B683A685A60FB685B68102B08D1FB68AA
:101EBC001B687A689A60FB681B68BA68DA6007E08E
:101ECC00FB681B68BA689A60FB681B687A68DA6002
:101EDC0000BF1437BD4680BC7047000080B48BB087
:101EEC0000AF7860396000237B6200233B6269E1BC
:101EFC0001227B6A02FA03F3FB613B681B68FA69F7
:101F0C001340BB61BA69FB699A4240F058813B6847
:101F1C005B689A4A93425ED0984A934275D8984A25
:101F2C00934258D0964A93426FD8964A934252D0D5
:101F3C00944A934269D8944A93424CD0924A934221
:101F4C0063D8924A934246D0904A93425DD8122B62
:101F5C002AD8122B59D801A252F823F0E31F0008FB
:101F6C00BD1F0008CF1F0008112000081720000813
:101F7C001720000817200008172000081720000859
:101F8C001720000817200008172000081720000849
:101F9C001720000817200008172000081720000839
:101FAC00C51F0008D91F0008794A934213D02CE0B2
:101FBC003B68DB683B6229E03B68DB6804333B62CF
:101FCC0024E03B68DB6808333B621FE03B68DB685E
:101FDC000C333B621AE03B689B68002B02D1042354
:101FEC003B6213E03B689B68012B05D108233B62E5
:101FFC007B68FA691A6109E008233B627B68FA691D
:10200C005A6103E000233B6200E000BFBB69FF2B79
:10201C0001D87B6801E07B6804337B61BB69FF2BD3
:10202C0002D87B6A9B0002E07B6A083B9B003B6109
:10203C007B691A680F213B6901FA03F3DB431A40F1
:10204C00396A3B6901FA03F31A437B691A603B68EE
:10205C005B6803F08053002B00F0B1804D4B9B6903
:10206C004C4A43F0010393614A4B9B6903F0010313
:10207C00BB60BB68484A7B6A9B08023352F823302A
:10208C00FB607B6A03F003039B000F2202FA03F34D
:10209C00DB43FA681340FB607B68404A934213D0E1
:1020AC007B683F4A93420DD07B683E4A934207D0EF
:1020BC007B683D4A934201D1032306E0042304E0EC
:1020CC00022302E0012300E000237A6A02F00302FB
:1020DC0092009340FA681343FB602F497B6A9B087C
:1020EC000233FA6841F823203B685B6803F48013E1
:1020FC00002B06D02D4B9A682C49BB6913438B607F
:10210C0006E02A4B9A68BB69DB43284913408B6075
:10211C003B685B6803F40013002B06D0234BDA6892
:10212C002249BB691343CB6006E0204BDA68BB69DC
:10213C00DB431E491340CB603B685B6803F4003300
:10214C00002B06D0194B5A681849BB6913434B60D6
:10215C0006E0164B5A68BB69DB43144913404B60CD
:10216C003B685B6803F48033002B21D00F4B1A685B
:10217C000E49BB6913430B6021E000BF0000321015
:10218C00000031100000221000002110000012107D
:10219C000000111000100240000001400008014036
:1021AC00000C0140001001400014014000040140EB
:1021BC000B4B1A68BB69DB43094913400B607B6A04
:1021CC0001337B623B681A687B6A22FA03F3002BAB
:1021DC007FF48EAE00BF00BF2C37BD4680BC70476D
:1021EC000004014080B485B000AF78600B467B8062
:1021FC007B689A687B881340002B02D00123FB7309
:10220C0001E00023FB73FB7B18461437BD4680BCF2
:10221C00704780B483B000AF78600B467B80134668
:10222C007B707B78002B03D07A887B681A6103E083
:10223C007B881A047B681A6100BF0C37BD4680BCD2
:10224C00704780B485B000AF78600B467B807B68AC
:10225C00DB68FB607A88FB6813401A04FB68D9437F
:10226C007B880B401A437B681A6100BF1437BD464C
:10227C0080BC704780B586B000AF78607B68002B5F
:10228C0001D1012372E27B681B6803F00103002B70
:10229C0000F08780924B5B6803F00C03042B0CD08E
:1022AC008F4B5B6803F00C03082B12D18C4B5B68D3
:1022BC0003F48033B3F5803F0BD1894B1B6803F4D7
:1022CC000033002B6CD07B685B68002B68D101233A
:1022DC004CE27B685B68B3F5803F06D1804B1B6892
:1022EC007F4A43F4803313602EE07B685B68002BDD
:1022FC000CD17B4B1B687A4A23F480331360784BE8
:10230C001B68774A23F4802313601DE07B685B68AD
:10231C00B3F5A02F0CD1724B1B68714A43F4802388
:10232C0013606F4B1B686E4A43F4803313600BE0F1
:10233C006B4B1B686A4A23F480331360684B1B6831
:10234C00674A23F4802313607B685B68002B13D0EF
:10235C00FEF7EEFE386108E0FEF7EAFE02463B6946
:10236C00D31A642B01D9032300E25D4B1B6803F4E1
:10237C000033002BF0D014E0FEF7DAFE386108E0F1
:10238C00FEF7D6FE02463B69D31A642B01D9032310
:10239C00ECE1534B1B6803F40033002BF0D100E04D
:1023AC0000BF7B681B6803F00203002B63D04C4B0F
:1023BC005B6803F00C03002B0BD0494B5B6803F0FC
:1023CC000C03082B1CD1464B5B6803F48033002BA9
:1023DC0016D1434B1B6803F00203002B05D07B681E
:1023EC001B69012B01D00123C0E13D4B1B6823F07D
:1023FC00F8027B685B69DB00394913430B603AE0F8
:10240C007B681B69002B20D0364B01221A60FEF72B
:10241C008FFE386108E0FEF78BFE02463B69D31A4B
:10242C00022B01D90323A1E12D4B1B6803F00203FE
:10243C00002BF0D02A4B1B6823F0F8027B685B69F9
:10244C00DB00274913430B6015E0264B00221A6072
:10245C00FEF76EFE386108E0FEF76AFE02463B6945
:10246C00D31A022B01D9032380E11D4B1B6803F007
:10247C000203002BF0D17B681B6803F00803002BD0
:10248C003AD07B689B69002B19D0174B01221A603C
:10249C00FEF74EFE386108E0FEF74AFE02463B6945
:1024AC00D31A022B01D9032360E10D4B5B6A03F0B5
:1024BC000203002BF0D0012000F0FEFA1CE00A4BC6
:1024CC0000221A60FEF734FE38610FE0FEF730FE92
:1024DC0002463B69D31A022B08D9032346E100BFFD
:1024EC00001002400000424280044242924B5B6A60
:1024FC0003F00203002BE9D17B681B6803F0040393
:10250C00002B00F0A6800023FB758B4BDB6903F0DE
:10251C008053002B0DD1884BDB69874A43F08053E5
:10252C00D361854BDB6903F08053BB60BB6801232F
:10253C00FB75824B1B6803F48073002B18D17F4B07
:10254C001B687E4A43F480731360FEF7F1FD38611B
:10255C0008E0FEF7EDFD02463B69D31A642B01D966
:10256C00032303E1754B1B6803F48073002BF0D03D
:10257C007B68DB68012B06D16F4B1B6A6E4A43F0FC
:10258C00010313622DE07B68DB68002B0CD16A4BD6
:10259C001B6A694A23F001031362674B1B6A664A84
:1025AC0023F0040313621CE07B68DB68052B0CD161
:1025BC00614B1B6A604A43F0040313625E4B1B6A57
:1025CC005D4A43F0010313620BE05B4B1B6A5A4AF2
:1025DC0023F001031362584B1B6A574A23F0040380
:1025EC0013627B68DB68002B15D0FEF7A1FD386108
:1025FC000AE0FEF79DFD02463B69D31A41F2883290
:10260C00934201D90323B1E04B4B1B6A03F0020345
:10261C00002BEED014E0FEF78BFD38610AE0FEF7DC
:10262C0087FD02463B69D31A41F28832934201D9A5
:10263C0003239BE0404B1B6A03F00203002BEED1FB
:10264C00FB7D012B05D13C4BDB693B4A23F08053CE
:10265C00D3617B68DB69002B00F08780364B5B68AD
:10266C0003F00C03082B61D07B68DB69022B46D18D
:10267C00334B00221A60FEF75BFD386108E0FEF771
:10268C0057FD02463B69D31A022B01D903236DE097
:10269C00294B1B6803F00073002BF0D17B681B6A7D
:1026AC00B3F5803F08D1244B5B6823F400327B6880
:1026BC009B68214913434B601F4B5B6823F47412D6
:1026CC007B68196A7B685B6A0B431B4913434B603D
:1026DC001B4B01221A60FEF72BFD386108E0FEF758
:1026EC0027FD02463B69D31A022B01D903233DE097
:1026FC00114B1B6803F00073002BF0D035E0104B2E
:10270C0000221A60FEF714FD386108E0FEF710FD98
:10271C0002463B69D31A022B01D9032326E0064B50
:10272C001B6803F00073002BF0D11EE07B68DB69A3
:10273C00012B07D1012319E000100240007000406A
:10274C00600042420B4B5B68FB60FB6803F4803219
:10275C007B681B6A9A4206D1FB6803F470127B6893
:10276C005B6A9A4201D0012300E000231846183717
:10277C00BD4680BD0010024080B584B000AF7860CB
:10278C0039607B68002B01D10123D0E06A4B1B68B8
:10279C0003F007033A689A4210D9674B1B6823F081
:1027AC00070265493B6813430B60634B1B6803F0DE
:1027BC0007033A689A4201D00123B8E07B681B6892
:1027CC0003F00203002B20D07B681B6803F004038A
:1027DC00002B05D0594B5B68584A43F4E0635360B7
:1027EC007B681B6803F00803002B05D0534B5B6818
:1027FC00524A43F460535360504B5B6823F0F00231
:10280C007B689B684D4913434B607B681B6803F0E6
:10281C000103002B40D07B685B68012B07D1474B31
:10282C001B6803F40033002B15D101237FE07B6878
:10283C005B68022B07D1414B1B6803F00073002B24
:10284C0009D1012373E03D4B1B6803F00203002BFD
:10285C0001D101236BE0394B5B6823F003027B68E9
:10286C005B68364913434B60FEF762FCF8600AE084
:10287C00FEF75EFC0246FB68D31A41F288329342A3
:10288C0001D9032353E02D4B5B6803F00C027B68EA
:10289C005B689B009A42EBD1274B1B6803F0070344
:1028AC003A689A4210D2244B1B6823F00702224943
:1028BC003B6813430B60204B1B6803F007033A681B
:1028CC009A4201D0012332E07B681B6803F00403B9
:1028DC00002B08D0194B5B6823F4E0627B68DB6843
:1028EC00164913434B607B681B6803F00803002BED
:1028FC0009D0124B5B6823F460527B681B69DB00C8
:10290C000E4913434B6000F021F802460B4B5B68F9
:10291C001B0903F00F030A49CB5C22FA03F3094AA3
:10292C001360094B1B681846FEF776F9002318460E
:10293C001037BD4680BD00BF002002400010024091
:10294C008C450008000000200400002080B487B0F3
:10295C0000AF0023FB600023BB6000237B610023DE
:10296C007B6000233B611E4B5B68FB60FB6803F0E4
:10297C000C03042B02D0082B03D027E0194B3B612E
:10298C0027E0FB689B0C03F00F03174AD35C7B60BA
:10299C00FB6803F48033002B10D0114B5B685B0C8D
:1029AC0003F00103114AD35CBB607B680D4A03FB47
:1029BC0002F2BB68B2FBF3F37B6104E07B680C4A68
:1029CC0002FB03F37B617B693B6102E0054B3B61DE
:1029DC0000BF3B6918461C37BD4680BC704700BF22
:1029EC000010024000127A00A4450008B44500080B
:1029FC0000093D0080B400AF024B1B681846BD4671
:102A0C0080BC70470000002080B500AFFFF7F2FFDC
:102A1C000246054B5B681B0A03F007030349CB5CBA
:102A2C0022FA03F3184680BD001002409C450008B2
:102A3C0080B500AFFFF7DEFF0246054B5B68DB0A93
:102A4C0003F007030349CB5C22FA03F3184680BD5D
:102A5C00001002409C45000880B483B000AF786041
:102A6C0039607B680F221A60114B5B6803F003021C
:102A7C007B685A600E4B5B6803F0F0027B689A60CF
:102A8C000B4B5B6803F4E0627B68DA60084B5B68B5
:102A9C00DB0803F4E0627B681A61064B1B6803F0E9
:102AAC0007023B681A6000BF0C37BD4680BC7047FC
:102ABC00001002400020024080B485B000AF786066
:102ACC000A4B1B680A4AA2FB03235B0A7A6802FBC7
:102ADC0003F3FB6000BFFB685A1EFA60002BF9D1B0
:102AEC0000BF00BF1437BD4680BC704700000020FB
:102AFC00D34D621080B586B000AF786000233B6187
:102B0C000023FB607B681B6803F00103002B7DD066
:102B1C000023FB754F4BDB6903F08053002B0DD169
:102B2C004C4BDB694B4A43F08053D361494BDB6917
:102B3C0003F08053BB60BB680123FB75464B1B68DD
:102B4C0003F48073002B18D1434B1B68424A43F4A7
:102B5C0080731360FEF7ECFA386108E0FEF7E8FAD0
:102B6C0002463B69D31A642B01D903236DE03A4B1F
:102B7C001B6803F48073002BF0D0364B1B6A03F4F4
:102B8C004073FB60FB68002B2ED07B685B6803F402
:102B9C004073FA689A4227D02E4B1B6A23F4407379
:102BAC00FB602E4B01221A602C4B00221A60294A22
:102BBC00FB681362FB6803F00103002B14D0FEF7D3
:102BCC00B7FA38610AE0FEF7B3FA02463B69D31A4A
:102BDC0041F28832934201D9032336E01D4B1B6A24
:102BEC0003F00203002BEED01A4B1B6A23F4407245
:102BFC007B685B68174913430B62FB7D012B05D186
:102C0C00144BDB69134A23F08053D3617B681B6838
:102C1C0003F00203002B08D00E4B5B6823F44042F8
:102C2C007B689B680B4913434B607B681B6803F004
:102C3C001003002B08D0074B5B6823F480027B68E1
:102C4C00DB68044913434B60002318461837BD4614
:102C5C0080BD00BF001002400070004040044242A2
:102C6C0080B582B000AF78607B68002B01D1012366
:102C7C0041E07B6893F83D30DBB2002B06D17B68DA
:102C8C00002283F83C207868FEF72CF97B6802223E
:102C9C0083F83D207B681A687B680433194610461C
:102CAC0000F0BEFA7B68012283F846207B68012283
:102CBC0083F83E207B68012283F83F207B68012249
:102CCC0083F840207B68012283F841207B68012235
:102CDC0083F842207B68012283F843207B68012221
:102CEC0083F844207B68012283F845207B6801220D
:102CFC0083F83D20002318460837BD4680BD0000F0
:102D0C0080B485B000AF78607B6893F83D30DBB25F
:102D1C00012B01D0012332E07B68022283F83D2095
:102D2C007B681B68184A93420ED07B681B68B3F112
:102D3C00804F09D07B681B68144A934204D07B688F
:102D4C001B68134A934211D17B681B689B6803F084
:102D5C000703FB60FB68062B10D07B681B681A68A6
:102D6C007B681B6842F001021A6007E07B681B68F5
:102D7C001A687B681B6842F001021A60002318462F
:102D8C001437BD4680BC7047002C01400004004045
:102D9C000008004080B485B000AF78607B6893F881
:102DAC003D30DBB2012B01D001233AE07B680222DB
:102DBC0083F83D207B681B68DA687B681B6842F0EF
:102DCC000102DA607B681B68184A93420ED07B685C
:102DDC001B68B3F1804F09D07B681B68144A93427F
:102DEC0004D07B681B68134A934211D17B681B6823
:102DFC009B6803F00703FB60FB68062B10D07B6815
:102E0C001B681A687B681B6842F001021A6007E0B5
:102E1C007B681B681A687B681B6842F001021A60A9
:102E2C00002318461437BD4680BC7047002C014067
:102E3C00000400400008004080B582B000AF78600C
:102E4C007B681B681B6903F00203022B22D17B6891
:102E5C001B68DB6803F00203022B1BD17B681B6829
:102E6C006FF002021A617B6801221A777B681B687B
:102E7C009B6903F00303002B03D0786800F0B4F9CE
:102E8C0005E0786800F0A7F9786800F0B6F97B687F
:102E9C0000221A777B681B681B6903F00403042B60
:102EAC0022D17B681B68DB6803F00403042B1BD165
:102EBC007B681B686FF004021A617B6802221A7728
:102ECC007B681B689B6903F44073002B03D0786804
:102EDC0000F08AF905E0786800F07DF9786800F078
:102EEC008CF97B6800221A777B681B681B6903F0DE
:102EFC000803082B22D17B681B68DB6803F00803EE
:102F0C00082B1BD17B681B686FF008021A617B6869
:102F1C0004221A777B681B68DB6903F00303002B20
:102F2C0003D0786800F060F905E0786800F053F998
:102F3C00786800F062F97B6800221A777B681B685E
:102F4C001B6903F01003102B22D17B681B68DB6814
:102F5C0003F01003102B1BD17B681B686FF0100261
:102F6C001A617B6808221A777B681B68DB6903F49B
:102F7C004073002B03D0786800F036F905E07868D0
:102F8C0000F029F9786800F038F97B6800221A778C
:102F9C007B681B681B6903F00103012B0ED17B6856
:102FAC001B68DB6803F00103012B07D17B681B68EE
:102FBC006FF001021A617868FDF7E4FD7B681B680D
:102FCC001B6903F08003802B0ED17B681B68DB68C8
:102FDC0003F08003802B07D17B681B686FF08002A5
:102FEC001A61786800F07BFA7B681B681B6903F038
:102FFC004003402B0ED17B681B68DB6803F0400359
:10300C00402B07D17B681B686FF040021A6178680F
:10301C0000F0FCF87B681B681B6903F02003202B75
:10302C000ED17B681B68DB6803F02003202B07D1D3
:10303C007B681B686FF020021A61786800F046FA12
:10304C0000BF0837BD4680BD80B584B000AF786046
:10305C0039600023FB737B6893F83C30012B01D162
:10306C000223B4E07B68012283F83C207B680222B7
:10307C0083F83D207B681B689B68BB60BB6823F0B2
:10308C007703BB60BB6823F47F43BB607B681B6822
:10309C00BA689A603B681B68B3F5005F3ED0B3F525
:1030AC00005F00F28780B3F5805F00F08680B3F597
:1030BC00805F7FD8702B1AD0702B7BD8602B50D0B0
:1030CC00602B77D8502B3CD0502B73D8402B58D03A
:1030DC00402B6FD8302B64D0302B6BD8202B60D08A
:1030EC00202B67D8002B5CD0102B5AD062E07B6869
:1030FC0018683B6899683B685A683B68DB6800F065
:10310C0068F97B681B689B68BB60BB6843F07703FE
:10311C00BB607B681B68BA689A604FE07B68186874
:10312C003B6899683B685A683B68DB6800F051F96A
:10313C007B681B689A687B681B6842F480429A60C3
:10314C003CE07B6818683B6859683B68DB681A464A
:10315C0000F0C8F87B681B685021184600F01FF976
:10316C002CE07B6818683B6859683B68DB681A463A
:10317C0000F0E6F87B681B686021184600F00FF938
:10318C001CE07B6818683B6859683B68DB681A462A
:10319C0000F0A8F87B681B684021184600F0FFF887
:1031AC000CE07B681A683B681B681946104600F0F7
:1031BC00F6F803E00123FB7300E000BF7B680122FB
:1031CC0083F83D207B68002283F83C20FB7B18466B
:1031DC001037BD4680BD80B483B000AF786000BFAF
:1031EC000C37BD4680BC704780B483B000AF7860AC
:1031FC0000BF0C37BD4680BC704780B483B000AFB5
:10320C00786000BF0C37BD4680BC704780B483B07B
:10321C0000AF786000BF0C37BD4680BC7047000023
:10322C0080B485B000AF786039607B681B68FB6048
:10323C007B68294A93420BD07B68B3F1804F07D04F
:10324C007B68264A934203D07B68254A934208D177
:10325C00FB6823F07003FB603B685B68FA68134300
:10326C00FB607B681C4A93420BD07B68B3F1804FA8
:10327C0007D07B68194A934203D07B68184A934263
:10328C0008D1FB6823F44073FB603B68DB68FA6889
:10329C001343FB60FB6823F080023B685B691343BC
:1032AC00FB607B68FA681A603B689A687B68DA6234
:1032BC003B681A687B689A627B68074A934203D121
:1032CC003B681A697B681A637B6801225A6100BFEC
:1032DC001437BD4680BC7047002C014000040040F0
:1032EC000008004080B487B000AFF860B9607A6025
:1032FC00FB681B6A7B61FB681B6A23F00102FB689D
:10330C001A62FB689B693B613B6923F0F0033B61EC
:10331C007B681B013A6913433B617B6923F00A0309
:10332C007B617A69BB6813437B61FB683A699A617C
:10333C00FB687A691A6200BF1C37BD4680BC7047B7
:10334C0080B487B000AFF860B9607A60FB681B6A24
:10335C007B61FB681B6A23F01002FB681A62FB6836
:10336C009B693B613B6923F470433B617B681B03A6
:10337C003A6913433B617B6923F0A0037B61BB6813
:10338C001B017A6913437B61FB683A699A61FB689C
:10339C007A691A6200BF1C37BD4680BC704780B486
:1033AC0085B000AF786039607B689B68FB60FB6818
:1033BC0023F07003FB603A68FB68134343F0070388
:1033CC00FB607B68FA689A6000BF1437BD4680BC0E
:1033DC00704780B487B000AFF860B9607A603B602A
:1033EC00FB689B687B617B6923F47F437B613B6853
:1033FC001A027B681A43BB6813437A6913437B61D7
:10340C00FB687A699A6000BF1C37BD4680BC704768
:10341C0080B485B000AF786039607B6893F83C303D
:10342C00012B01D1022346E07B68012283F83C206A
:10343C007B68022283F83D207B681B685B68FB601D
:10344C007B681B689B68BB60FB6823F07003FB60A8
:10345C003B681B68FA681343FB607B681B68FA685F
:10346C005A607B681B68164A93420ED07B681B68B7
:10347C00B3F1804F09D07B681B68124A934204D089
:10348C007B681B68104A93420CD1BB6823F0800305
:10349C00BB603B685B68BA681343BB607B681B68A6
:1034AC00BA689A607B68012283F83D207B68002211
:1034BC0083F83C20002318461437BD4680BC704767
:1034CC00002C0140000400400008004080B483B090
:1034DC0000AF786000BF0C37BD4680BC704780B42D
:1034EC0083B000AF786000BF0C37BD4680BC70471E
:1034FC0080B582B000AF78607B68002B01D10123CE
:10350C0042E07B6893F84130DBB2002B06D17B683C
:10351C00002283F840207868FDF73EFD7B6824226A
:10352C0083F841207B681B68DA687B681B6822F48F
:10353C000052DA60786800F05DFF7B681B681A69DE
:10354C007B681B6822F490421A617B681B685A697D
:10355C007B681B6822F02A025A617B681B68DA6858
:10356C007B681B6842F40052DA607B6800225A6464
:10357C007B68202283F841207B68202283F842203C
:10358C007B6800225A63002318460837BD4680BD6D
:10359C0080B58AB002AFF860B9603B601346FB801F
:1035AC0000237B61FB6893F84130DBB2202B6DD19B
:1035BC00BB68002B02D0FB88002B01D1012366E0F5
:1035CC00FB6800225A64FB68212283F84120FDF736
:1035DC00AFFD7861FB68FA889A84FB68FA88DA8414
:1035EC00FB689B68B3F5805F08D1FB681B69002BF7
:1035FC0004D10023FB61BB68BB6103E0BB68FB61CA
:10360C000023BB612AE03B6800937B690022802188
:10361C00F86800F024FC0346002B01D0032336E0AD
:10362C00FB69002B0BD1BB691B881A46FB681B6816
:10363C00C2F308025A60BB690233BB6107E0FB6945
:10364C001A78FB681B685A60FB690133FB61FB68E5
:10365C00DB8C9BB2013B9AB2FB68DA84FB68DB8C97
:10366C009BB2002BCFD13B6800937B690022402199
:10367C00F86800F0F4FB0346002B01D0032306E0AE
:10368C00FB68202283F84120002300E00223184627
:10369C002037BD4680BD80B584B000AFF860B960FE
:1036AC001346FB80FB6893F84230DBB2202B12D11F
:1036BC00BB68002B02D0FB88002B01D101230BE04F
:1036CC00FB6800221A63FB881A46B968F86800F098
:1036DC0035FC034600E0022318461037BD4680BD7A
:1036EC0080B5BAB000AF78607B681B681B68C7F800
:1036FC00E4307B681B68DB68C7F8E0307B681B68CC
:10370C005B69C7F8DC300023C7F8D8300023C7F852
:10371C00D430D7F8E43003F00F03C7F8D830D7F81B
:10372C00D830002B0FD1D7F8E43003F02003002B56
:10373C0009D0D7F8E03003F02003002B03D07868D1
:10374C0000F09AFD5BE2D7F8D830002B00F0DE8059
:10375C00D7F8DC3003F00103002B06D1D7F8E030AA
:10376C0003F49073002B00F0D180D7F8E43003F011
:10377C000103002B0BD0D7F8E03003F48073002B3F
:10378C0005D07B685B6C43F001027B685A64D7F808
:10379C00E43003F00403002B0BD0D7F8DC3003F03B
:1037AC000103002B05D07B685B6C43F002027B6845
:1037BC005A64D7F8E43003F00203002B0BD0D7F88F
:1037CC00DC3003F00103002B05D07B685B6C43F00D
:1037DC0004027B685A64D7F8E43003F00803002B2A
:1037EC0011D0D7F8E03003F02003002B05D1D7F827
:1037FC00DC3003F00103002B05D07B685B6C43F0DD
:10380C0008027B685A647B685B6C002B00F0F281C9
:10381C00D7F8E43003F02003002B08D0D7F8E030C1
:10382C0003F02003002B02D0786800F025FD7B68A4
:10383C001B685B6903F04003002B14BF01230023BA
:10384C00DBB2C7F8D4307B685B6C03F00803002B49
:10385C0003D1D7F8D430002B4FD0786800F02FFC70
:10386C007B681B685B6903F04003002B41D07B68CD
:10387C001B681433C7F89C30D7F89C3053E8003FD2
:10388C00C7F89830D7F8983023F04003C7F8D030F9
:10389C007B681B681433D7F8D020C7F8A820C7F86A
:1038AC00A430D7F8A410D7F8A82041E80023C7F813
:1038BC00A030D7F8A030002BD9D17B68DB6B002B64
:1038CC0013D07B68DB6B7E4A5A637B68DB6B1846D4
:1038DC00FEF758F90346002B16D07B68DB6B5B6B4D
:1038EC007A68D26B104698470EE0786800F0A5F91C
:1038FC000AE0786800F0A1F906E0786800F09DF91C
:10390C007B6800225A6475E100BF73E17B681B6B16
:10391C00012B40F04F81D7F8E43003F01003002B5B
:10392C0000F04881D7F8E03003F01003002B00F0D2
:10393C0041810023BB607B681B681B68BB607B6894
:10394C001B685B68BB60BB687B681B685B6903F0CA
:10395C004003002B00F0B6807B68DB6B1B685B6858
:10396C00A7F8BE30B7F8BE30002B00F045817B685D
:10397C009B8DB7F8BE209A4280F03E817B68B7F8E9
:10398C00BE20DA857B68DB6B9B69202B00F088807E
:10399C007B681B680C33C7F88830D7F8883053E83D
:1039AC00003FC7F88430D7F8843023F48073C7F80D
:1039BC00B8307B681B680C33D7F8B820C7F8942054
:1039CC00C7F89030D7F89010D7F8942041E800232E
:1039DC00C7F88C30D7F88C30002BD9D17B681B689A
:1039EC0014337B677B6F53E8003F3B673B6F23F0DF
:1039FC000103C7F8B4307B681B681433D7F8B420C4
:103A0C00C7F88020FB67F96FD7F8802041E80023C6
:103A1C00BB67BB6F002BE1D17B681B6814333B6623
:103A2C003B6E53E8003FFB65FB6D23F04003C7F88A
:103A3C00B0307B681B681433D7F8B020FA66BB66CD
:103A4C00B96EFA6E41E800237B667B6E002BE3D1E6
:103A5C007B68202283F842207B6800221A637B68F3
:103A6C001B680C33FB64FB6C53E8003FBB64BB6C02
:103A7C0023F01003C7F8AC307B681B680C33D7F805
:103A8C00AC20BA657B65796DBA6D41E800233B6566
:103A9C003B6D002BE3D17B68DB6B1846FEF736F8E9
:103AAC007B6802225A637B689A8D7B68DB8D9BB2A4
:103ABC00D31A9BB21946786800F0C8F89CE000BF96
:103ACC008F4100087B689A8D7B68DB8D9BB2D31A83
:103ADC00A7F8CE307B68DB8D9BB2002B00F08E807C
:103AEC00B7F8CE30002B00F089807B681B680C3354
:103AFC00BB63BB6B53E8003F7B637B6B23F490731E
:103B0C00C7F8C8307B681B680C33D7F8C8207A64B8
:103B1C003B64396C7A6C41E80023FB63FB6B002B34
:103B2C00E3D17B681B6814337B627B6A53E8003FEC
:103B3C003B623B6A23F00103C7F8C4307B681B6807
:103B4C001433D7F8C4203A63FB62F96A3A6B41E844
:103B5C000023BB62BB6A002BE3D17B68202283F875
:103B6C0042207B6800221A637B681B680C333B6124
:103B7C003B6953E8003FFB60FB6823F01003C7F878
:103B8C00C0307B681B680C33D7F8C020FA61BB616E
:103B9C00B969FA6941E800237B617B69002BE3D1A9
:103BAC007B6802225A63B7F8CE301946786800F069
:103BBC004DF823E0D7F8E43003F08003002B09D054
:103BCC00D7F8E03003F08003002B03D0786800F0C6
:103BDC00ECFA14E0D7F8E43003F04003002B0ED0DD
:103BEC00D7F8E03003F04003002B08D0786800F0E1
:103BFC002BFB04E000BF02E000BF00E000BFE83791
:103C0C00BD4680BD80B483B000AF786000BF0C3778
:103C1C00BD4680BC704780B483B000AF786000BFF5
:103C2C000C37BD4680BC704780B483B000AF786061
:103C3C0000BF0C37BD4680BC704780B483B000AF6A
:103C4C00786000BF0C37BD4680BC704780B483B031
:103C5C0000AF78600B467B8000BF0C37BD4680BC44
:103C6C00704780B59CB000AF78607B685B6AFB6680
:103C7C007B681B681B6803F02003002B72D1FB6E62
:103C8C000022DA85FB6E1B680C33FB64FB6C53E87B
:103C9C00003FBB64BB6C23F48073BB66FB6E1B687C
:103CAC000C33BA6EBA657B65796DBA6D41E8002349
:103CBC003B653B6D002BE5D1FB6E1B681433BB637E
:103CCC00BB6B53E8003F7B637B6B23F001037B668C
:103CDC00FB6E1B6814337A6E7A643B64396C7A6CB5
:103CEC0041E80023FB63FB6B002BE5D1FB6E1B68EB
:103CFC0014337B627B6A53E8003F3B623B6A23F0E0
:103D0C0040033B66FB6E1B6814333A6E3A63FB62EE
:103D1C00F96A3A6B41E80023BB62BB6A002BE5D120
:103D2C00FB6E202283F84220FB6E1B6B012B19D1FA
:103D3C00FB6E1B680C333B613B6953E8003FFB6037
:103D4C00FB6823F01003FB65FB6E1B680C33FA6DEC
:103D5C00FA61BB61B969FA6941E800237B617B694F
:103D6C00002BE5D1FB6E00225A63FB6E1B6B012B03
:103D7C0006D1FB6E9B8D1946F86EFFF767FF02E0CC
:103D8C00F86EFFF748FF00BF7037BD4680BD80B5A9
:103D9C0084B000AF78607B685B6AFB60FB680122D3
:103DAC005A63FB681B6B012B08D1FB689B8D5B086E
:103DBC009BB21946F868FFF749FF02E0F868FFF775
:103DCC0033FF00BF1037BD4680BD80B584B000AF57
:103DDC0078600023FB607B685B6ABB60BB681B6818
:103DEC005B6903F08003002B14BF01230023DBB2BB
:103DFC00FB60BB6893F84130DBB2212B08D1FB6828
:103E0C00002B05D0BB680022DA84B86800F030F9CA
:103E1C00BB681B685B6903F04003002B14BF0123D4
:103E2C000023DBB2FB60BB6893F84230DBB2222B81
:103E3C0008D1FB68002B05D0BB680022DA85B86876
:103E4C0000F03DF9BB685B6C43F01002BB685A6430
:103E5C00B868FFF7F2FE00BF1037BD4680BD80B5D5
:103E6C0090B000AFF860B9603B601346FB7150E056
:103E7C00BB6CB3F1FF3F4CD0BB6C002B07D0FDF7F4
:103E8C0057F902463B68D31ABA6C9A4241D2FB6886
:103E9C001B680C33BB62BB6A53E8003F7B627B6AD6
:103EAC0023F4D073FB63FB681B680C33FA6B7A63E7
:103EBC003B63396B7A6B41E80023FB62FB6A002B96
:103ECC00E5D1FB681B6814337B617B6953E8003FC9
:103EDC003B613B6923F00103BB63FB681B68143334
:103EEC00BA6B3A62FB61F9693A6A41E80023BB613B
:103EFC00BB69002BE5D1FB68202283F84120FB68CD
:103F0C00202283F84220FB68002283F84020032300
:103F1C000FE0FB681B681A68BB681340BA689A42CA
:103F2C000CBF01230023DBB21A46FB799A429FD0C7
:103F3C00002318464037BD4680BD000080B598B0C0
:103F4C0000AFF860B9601346FB80BA68FB689A62F0
:103F5C00FB68FA889A85FB6800225A64FB68222267
:103F6C0083F84220FB68DB6B3E4A9A62FB68DB6B92
:103F7C003D4ADA62FB68DB6B3C4A1A63FB68DB6B1D
:103F8C0000225A6307F10803FB65FB68D86BFB68DA
:103F9C001B6804331946FB6D1A68FB88FDF756FD48
:103FAC0000233B61FB681B681B683B61FB681B685B
:103FBC005B683B613B69FB681B69002B19D0FB6894
:103FCC001B680C333B643B6C53E8003FFB63FB6B9F
:103FDC0043F48073BB65FB681B680C33BA6DFA64E1
:103FEC00BB64B96CFA6C41E800237B647B6C002BDE
:103FFC00E5D1FB681B681433FB62FB6A53E8003F96
:10400C00BB62BB6A43F001037B65FB681B6814331E
:10401C007A6DBA637B63796BBA6B41E800233B63BF
:10402C003B6B002BE5D1FB681B681433BB61BB6990
:10403C0053E8003F7B617B6943F040033B65FB68C1
:10404C001B6814333A6D7A623B62396A7A6A41E8CA
:10405C000023FB61FB69002BE5D100231846603778
:10406C00BD4680BD6F3C00089B3D0008D73D000855
:10407C0080B489B000AF78607B681B680C33FB6040
:10408C00FB6853E8003FBB60BB6823F0C003FB61D7
:10409C007B681B680C33FA69BA617B617969BA6910
:1040AC0041E800233B613B69002BE5D17B68202272
:1040BC0083F8412000BF2437BD4680BC704780B4D4
:1040CC0095B000AF78607B681B680C337B637B6BAF
:1040DC0053E8003F3B633B6B23F49073FB647B68BA
:1040EC001B680C33FA6C3A64FB63F96B3A6C41E86D
:1040FC000023BB63BB6B002BE5D17B681B681433BF
:10410C003B623B6A53E8003FFB61FB6923F0010310
:10411C00BB647B681B681433BA6CFA62BB62B96A05
:10412C00FA6A41E800237B627B6A002BE5D17B684D
:10413C001B6B012B19D17B681B680C33FB60FB6874
:10414C0053E8003FBB60BB6823F010037B647B68C3
:10415C001B680C337A6CBA617B617969BA6941E886
:10416C0000233B613B69002BE5D17B68202283F85F
:10417C0042207B6800221A6300BF5437BD4680BCC6
:10418C00704780B584B000AF78607B685B6AFB6079
:10419C00FB680022DA85FB680022DA84F868FFF7F6
:1041AC004CFD00BF1037BD4680BD80B485B000AF5C
:1041BC0078607B6893F84130DBB2212B3ED17B6871
:1041CC009B68B3F5805F14D17B681B69002B10D101
:1041DC007B681B6AFB60FB681B881A467B681B6844
:1041EC00C2F308025A607B681B6A9A1C7B681A62CD
:1041FC0008E07B681B6A591C7A6811621A787B6824
:10420C001B685A607B68DB8C9BB2013B9BB27A6863
:10421C001946D184002B0FD17B681B68DA687B6848
:10422C001B6822F08002DA607B681B68DA687B68A6
:10423C001B6842F04002DA60002300E002231846BB
:10424C001437BD4680BC704780B582B000AF786033
:10425C007B681B68DA687B681B6822F04002DA60B6
:10426C007B68202283F841207868FFF7CBFC002381
:10427C0018460837BD4680BD80B58CB000AF78605D
:10428C007B6893F84230DBB2222B40F0AE807B6827
:10429C009B68B3F5805F17D17B681B69002B13D12A
:1042AC000023FB627B689B6ABB627B681B685B6854
:1042BC009BB2C3F308039AB2BB6A1A807B689B6AF1
:1042CC009A1C7B689A6226E07B689B6AFB620023DF
:1042DC00BB627B689B68B3F5805F07D07B689B688B
:1042EC00002B0AD17B681B69002B06D17B681B68ED
:1042FC005B68DAB2FB6A1A7008E07B681B685B6863
:10430C00DBB203F07F03DAB2FB6A1A707B689B6A3C
:10431C005A1C7B689A627B68DB8D9BB2013B9BB21B
:10432C007A681946D185002B5DD17B681B68DA68E9
:10433C007B681B6822F02002DA607B681B68DA68F5
:10434C007B681B6822F48072DA607B681B685A6990
:10435C007B681B6822F001025A617B68202283F87B
:10436C0042207B6800225A637B681B6B012B35D182
:10437C007B6800221A637B681B680C337B617B694A
:10438C0053E8003F3B613B6923F010037B627B6881
:10439C001B680C337A6A3A62FB61F9693A6A41E844
:1043AC000023BB61BB69002BE5D17B681B681B68D4
:1043BC0003F01003102B0AD10023FB607B681B68F1
:1043CC001B68FB607B681B685B68FB60FB687B6839
:1043DC009B8D19467868FFF739FC02E07868FFF787
:1043EC001AFC002302E0002300E0022318463037B9
:1043FC00BD4680BD80B584B000AF78607B681B681B
:10440C001B6923F440517B68DA687B681B680A439C
:10441C001A617B689A687B681B691A437B685B69C5
:10442C001343BB607B681B68DB6823F4B05323F039
:10443C000C037A681268B9680B43D3607B681B68FD
:10444C005B6923F440717B689A697B681B680A433B
:10445C005A617B681B682C4A934203D1FEF7E8FA39
:10446C00F86002E0FEF7D0FAF860FA6813469B0099
:10447C0013449A001A447B685B689B00B2FBF3F30D
:10448C00224AA2FB03235B091901FA6813469B001D
:10449C0013449A001A447B685B689B00B2FBF3F2EE
:1044AC001A4BA3FB02035B09642000FB03F3D31A32
:1044BC001B013233154AA2FB03235B0903F0F00303
:1044CC001944FA6813469B0013449A001A447B68FB
:1044DC005B689B00B2FBF3F20C4BA3FB02035B0982
:1044EC00642000FB03F3D31A1B013233074AA2FBEF
:1044FC0003235B0903F00F027B681B680A449A6074
:10450C0000BF1037BD4680BD003801401F85EB5100
:10451C0003460244934200D1704703F8011BF9E7AC
:10452C0070B500260C4D0D4C641BA410A64209D18D
:10453C0000F01AF800260A4D0A4C641BA410A6427F
:10454C0005D170BD55F8043B98470136EEE755F898
:10455C00043B98470136F2E7B8450008B845000817
:10456C00B8450008BC450008F8B500BFF8BC08BC4D
:10457C009E467047F8B500BFF8BC08BC9E46704715
:10458C0000000000000000000102030406070809F7
:10459C0000000000010203040203040506070809D9
:0C45AC000A0B0C0D0E0F10100102000095
:0445B80031010008C5
:0445BC000D010008E5
:0C45C0000024F4001000000001000000C6
:04000005080010A13E
:00000001FF
