:020000040800F2
:1000000000500020511200087D0F0008830F0008E7
:10001000890F00088F0F0008950F000800000000EE
:100020000000000000000000000000009B0F00081E
:10003000A70F000800000000B30F0008BF0F000862
:1000400099120008991200089912000899120008E4
:1000500099120008991200089912000899120008D4
:1000600099120008991200089912000899120008C4
:10007000991200089912000899120008CD0F000883
:1000800099120008991200089912000899120008A4
:100090009912000899120008991200089912000894
:1000A0009912000899120008991200089912000884
:1000B00099120008E10F000899120008991200082F
:1000C0009912000899120008991200089912000864
:1000D00099120008F50F00089912000899120008FB
:1000E0000910000899120008991200080000000089
:1000F0000000000000000000000000000000000000
:0C01000000000000000000005FF808F1A3
:10010C0010B5054C237833B9044B13B10448AFF345
:10011C0000800123237010BD0C00002000000000A3
:10012C003C4B000808B5034B1BB103490348AFF324
:10013C00008008BD00000000100000203C4B0008AF
:10014C00B0B48FB000AF786040F2B113FB620723FC
:10015C0087F83030072387F83130012387F83230A5
:10016C00FF2387F83630642387F837300823BB86A3
:10017C007B681D4607F10C040FCC0FC50FCC0FC5C7
:10018C0094E8070085E8070078683C37BD46B0BCAA
:10019C00704780B584B000AF786039600121786811
:1001AC0000F09FF90346BB73BB7BFB733B68002BD2
:1001BC0007D1BB7B23F00703FB737B680022DA615A
:1001CC003EE03B68012B0CD197F90E3023F007036E
:1001DC005BB243F001035BB2FB737B680122DA6113
:1001EC002EE03B68032B0CD197F90E3023F007035C
:1001FC005BB243F003035BB2FB737B680322DA61EF
:10020C001EE03B68052B0CD197F90E3023F0070349
:10021C005BB243F005035BB2FB737B680522DA61CA
:10022C000EE03B68062B0BD197F90E3023F0070339
:10023C005BB243F006035BB2FB737B680622DA61A8
:10024C00FB7B1A460121786800F065F900BF103776
:10025C00BD4680BD80B584B000AFF860B9603B602E
:10026C001346FB80FB681868FB689B8800221946C4
:10027C0001F06AFDFB689869FA884FF4FA63B96873
:10028C0002F0C2FA00BFFB689B69184602F0C7FE79
:10029C000346012BF7D1FB6898693A8B4FF4FA634C
:1002AC00396802F0F4FB00BFFB689B69184602F04A
:1002BC00B6FE0346012BF7D1FB681868FB689B88D8
:1002CC000122194601F040FD00BF1037BD4680BD2C
:1002DC0080B584B000AFF860B9603B601346FB801A
:1002EC00FB681868FB689B880022194601F02CFDFE
:1002FC00FB689869FA884FF4FA63B96802F084FADB
:10030C0000BFFB689B69184602F089FE0346012B6F
:10031C00F7D1FB6898693A8B4FF4FA63396802F0AD
:10032C0073FA00BFFB689B69184602F078FE03461F
:10033C00012BF7D1FB681868FB689B8801221946D2
:10034C0001F002FD00BF1037BD4680BD80B584B002
:10035C0000AF786039603B68DB045B11FB60FB68C5
:10036C001B0CFB72FB7A1A460621786800F0D3F856
:10037C00052000F0BFFFFB681B0AFB72FB7A1A46D4
:10038C000721786800F0C7F8052000F0B3FFFB6880
:10039C00FB72FB7A1A460821786800F0BCF805203D
:1003AC0000F0A8FF00BF1037BD4680BD80B584B0FB
:1003BC0000AF786039603B680C2B01DD0C233B608F
:1003CC003B68062B01DC07233B601E21786800F09C
:1003DC0088F80346FB730A2000F08CFF3B68DBB205
:1003EC001B01DAB2FB7B03F00F03DBB21344BB73CC
:1003FC00BB7B1A461E21786800F08DF80A2000F0AD
:10040C0079FF00BF1037BD4680BD80B582B000AF0C
:10041C0078600B46FB70FB781A460921786800F06F
:10042C007AF80A2000F066FF00BF0837BD4680BD91
:10043C0080B584B000AF78600B46FB700023FB7373
:10044C00FB782C2B01D82D23FB70FB78F02B01D9DA
:10045C00F023FB70FB78782B09D8FB782D3B124AE4
:10046C0082FB03125210DB17D31AFB730BE0FB78E1
:10047C00F02B08D8FB781E330B4A82FB0312921028
:10048C00DB17D31AFB73FB7B2033FB73FB7B1A4606
:10049C000B21786800F03FF80A2000F02BFF00BF1A
:1004AC001037BD4680BD00BF6766666680B584B0F8
:1004BC0000AF78601E21786800F013F80346FB73D8
:1004CC00FB7B43F00703BB73BB7B1A461E2178688A
:1004DC0000F021F80A2000F00DFF00BF1037BD46D8
:1004EC0080BD80B586B002AF78600B46FB70FB78A0
:1004FC0003F07F03DBB2BB7307F10F0307F10E01AF
:10050C000122009201227868FFF7A4FEFB7B1846BB
:10051C001037BD4680BD80B586B002AF78600B4603
:10052C00FB701346BB70FB7863F07F03DBB2BB73CD
:10053C00BB78FB7307F10F0307F10E010122009248
:10054C0001227868FFF7C4FE00BF1037BD4680BD9E
:10055C0080B586B000AFF8607A601A460B46FB7225
:10056C001346BB72FB7A63F07F03DBB2FB75FB684F
:10057C001868FB689B880022194601F0E5FBFB68B4
:10058C00986907F117014FF4FA63012202F03CF964
:10059C0000BFFB689B69184602F041FD0346012B26
:1005AC00F7D1FB689869BB7A9AB24FF4FA63796811
:1005BC0002F02AF900BFFB689B69184602F02FFD78
:1005CC000346012BF7D1FB681868FB689B88012256
:1005DC00194601F0B9FB00BF1837BD4680BD80B489
:1005EC0083B000AF7860012318460C37BD4680BC41
:1005FC00704780B586B000AFF860B96011461A46F6
:10060C000B46FB711346BB80FB68DB697B610121E8
:10061C00F868FFF7BEFD0E21F868FFF762FF03468E
:10062C00FB74FB7C1A460D21F868FFF774FFFB790D
:10063C001A462221F868FFF76EFFFB79BA68002191
:10064C00F868FFF785FF0321F868FFF7A2FD122178
:10065C00F868FFF746FF0346FB74FB7C03F00803C6
:10066C00002B0AD0FF221221F868FFF754FF79699A
:10067C00F868FFF78EFD01230FE0BB88013BBB80C0
:10068C00BB88002B05D17969F868FFF782FD002340
:10069C0003E0012000F02EFED9E718461837BD46BE
:1006AC0080BD80B582B000AF786005217868FFF717
:1006BC0070FD00BF0837BD4680BD90B589B000AF56
:1006CC00F860B9601346FB710023FB770023BB6114
:1006DC0007E0BB69BA68134400221A70BB69013386
:1006EC00BB61FB79BA699A42F3DB0121F868FFF729
:1006FC0050FD1221F868FFF7F4FE0346FB74FB7CF7
:10070C0003F04003002B2FD0FF221221F868FFF7D3
:10071C0002FF1321F868FFF7E4FE0346BB741021B7
:10072C00F868FFF7DEFE0346FB74FB7C1A460D21CE
:10073C00F868FFF7F0FEBA7CFB79934228BF1346AA
:10074C00FB7700237B610BE07B69BA68D41800212E
:10075C00F868FFF7C6FE034623707B6901337B61A3
:10076C00FB7F7A699A42EFDB0521F868FFF711FDF0
:10077C00FB7F18462437BD4690BD80B584B000AFD2
:10078C0078607868FFF72BFF0346002B00F093800E
:10079C0000217868FFF7FDFC0A2000F0ABFD012179
:1007AC007868FFF79EFE0346FB730A2000F0A2FD5B
:1007BC00FB7B63F07F03BB73BB7B1A46012178681C
:1007CC00FFF7A9FE642000F095FD7B681B6A1946B3
:1007DC007868FFF7BBFD7B6893F82A301946786878
:1007EC00FFF713FE7B6893F82B3019467868FFF7F8
:1007FC001FFE23220C217868FFF78DFE7868FFF727
:10080C0055FE7B6893F8243019467868FFF7CEFDC7
:10081C00FF221F217868FFF77EFE0023BB737B68E5
:10082C0093F825301B01DAB27B6893F826305B0015
:10083C00DBB21344BB73BB7B1A461D217868FFF7F0
:10084C006AFE7B681B8D1B0A9BB2DBB21A46202109
:10085C007868FFF760FE7B681B8DDBB21A4621219E
:10086C007868FFF758FE40217868FFF73AFE034698
:10087C00FB73FB7B43F03F03BB73BB7B1A464021EE
:10088C007868FFF748FE01217868FFF782FC7B68E7
:10089C000122DA610A2000F02DFD42217868FFF771
:1008AC0020FE0346FB73FB7B122B01D1C82304E013
:1008BC004FF4CA7301E040F2F71318461037BD46E7
:1008CC0080BD000080B582B000AF0C4B5B690B4A59
:1008DC0043F001035361094B5B6903F001037B6037
:1008EC007B68002200210F2000F0DDFD0F2000F0BE
:1008FC00F6FD00BF0837BD4680BD00BF00100240AA
:10090C0080B588B000AF07F1100300221A605A605E
:10091C009A60DA60524B9B69514A43F01003936121
:10092C004F4B9B6903F01003FB60FB684C4B9B69BE
:10093C004B4A43F020039361494B9B6903F020031E
:10094C00BB60BB68464B9B69454A43F0040393610B
:10095C00434B9B6903F004037B607B68404B9B69B2
:10096C003F4A43F0080393613D4B9B6903F0080336
:10097C003B603B6800224FF400513A4801F0E4F927
:10098C0000220621384801F0DFF901220321374803
:10099C0001F0DAF900224FF48251344801F0D4F915
:1009AC004FF400533B6101237B610023BB610223A5
:1009BC00FB6107F1100319462A4801F041F80123A5
:1009CC003B6100237B610023BB6107F110031946D7
:1009DC00254801F035F806233B6101237B61002398
:1009EC00BB610223FB6107F1100319461E4801F09D
:1009FC0027F803233B6101237B610023BB610223A6
:100A0C00FB6107F110031946184801F019F84FF46F
:100A1C0080633B61164B7B610023BB6107F11003C4
:100A2C001946124801F00CF84FF482533B61012334
:100A3C007B610223BB610223FB6107F110031946A2
:100A4C000A4800F0FDFF00220021282000F02BFDB9
:100A5C00282000F044FD00BF2037BD4680BD00BFFC
:100A6C00001002400010014000080140000C014041
:100A7C000000111080B500AF094B0A4A1A60084BF0
:100A8C0004225A60064B40F252729A60044801F0FC
:100A9C00A5F90346002B01D000F034F900BF80BD4E
:100AAC002800002000300040B0B58EB000AF00F040
:100ABC00EFFB00F0A5F8FFF723FFFFF703FF00F0B3
:100ACC0027F900F017FBFFF7D5FF00F0A5FA082275
:100ADC003F49404803F0C3F83F4C3B461846FFF7EC
:100AEC002FFB25463C460FCC0FC50FCC0FC594E809
:100AFC00070085E80700384B384A1A60364B01224C
:100B0C009A80354B354A9A60334B02229A81324B8C
:100B1C00324A1A61304B4FF480629A822E4B304A23
:100B2C009A612D48FFF729FE0346002B02D02D4B6E
:100B3C0001221A702848FFF7B4FD2B4802F0C4FBC1
:100B4C006423062229492448FFF753FD0346002B52
:100B5C000ED04FF4FA7000F0CDFB4FF40051244846
:100B6C0001F00AF9234801F07BF9234B00221A709B
:100B7C00224B01221A70214B02225A701F4B032266
:100B8C009A701E4B0422DA701C4B05221A711B4BF7
:100B9C0006225A714FF47A73082218490D4802F054
:100BAC00DBFF034687F83730104B01221A70084BD5
:100BBC001A780E4B5A70064B5A780C4B9A70044BA1
:100BCC009A780A4BDA70024BDA78084B1A71B7E74D
:100BDC00640100206002002034000020000C014061
:100BEC007801002060000020180200206400002022
:100BFC000010014028000020740100206C0100202E
:100C0C0080B590B000AF07F11803282200211846D8
:100C1C0003F062FF3B1D00221A605A609A60DA6092
:100C2C001A610923BB614FF48033FB6100233B62E3
:100C3C000123BB6201233B6302237B634FF48033AC
:100C4C00BB634FF4E013FB6307F11803184601F084
:100C5C0017F90346002B01D000F054F80F237B60EA
:100C6C000223BB600023FB604FF480633B610023D5
:100C7C007B613B1D0221184601F084FB0346002BCF
:100C8C0001D000F03FF800BF4037BD4680BD0000EA
:100C9C0080B582B000AF0346FB80FB88B3F5806F54
:100CAC0012D10B4B01221A7005220A490A48FFF790
:100CBC0004FD084B5A78094B1B78DBB29A4203D0DF
:100CCC00044B5A78054B1A7000BF0837BD4680BDDF
:100CDC0074010020E4000020340000207501002085
:100CEC0080B582B000AF78607B681B68044A934281
:100CFC0001D100F0E3FA00BF0837BD4680BD00BF4C
:100D0C000004004080B400AF72B600BFFEE70000E4
:100D1C0080B500AF174B184A1A60164B4FF482720D
:100D2C005A60144B00229A60124B0022DA60114B6D
:100D3C0000221A610F4B00225A610E4B4FF40072C5
:100D4C009A610C4B1822DA610A4B00221A62094B89
:100D5C0000225A62074B00229A62064B0A22DA6280
:100D6C00044801F0CDFC0346002B01D0FFF7CAFF6D
:100D7C0000BF80BD780100200030014080B588B0F4
:100D8C0000AF786007F1100300221A605A609A6075
:100D9C00DA607B681B681B4A93422FD11A4B9B6904
:100DAC00194A43F480539361174B9B6903F48053A6
:100DBC00FB60FB68144B9B69134A43F0040393617B
:100DCC00114B9B6903F00403BB60BB68A0233B6120
:100DDC0002237B610323FB6107F1100319460B48C7
:100DEC0000F02EFE40233B6100237B610023BB619E
:100DFC0007F110031946054800F022FE00BF20370A
:100E0C00BD4680BD0030014000100240000801408A
:100E1C0080B485B000AF154B9B69144A43F00103B5
:100E2C009361124B9B6903F00103BB60BB680F4BD2
:100E3C00DB690E4A43F08053D3610C4BDB6903F042
:100E4C0080537B607B680A4B5B68FB60FB6823F01C
:100E5C00E063FB60FB6843F00073FB60044AFB68D3
:100E6C00536000BF1437BD4680BC70470010024071
:100E7C000000014080B58EB000AF78600023FB62AB
:100E8C000023BB62002387F83330344BDB69334AD1
:100E9C0043F00203D361314BDB6903F00203FB60C7
:100EAC00FB6807F1100207F114031146184601F014
:100EBC00D9FB3B6AFB62FB6A002B03D101F0AAFB56
:100ECC00786304E001F0A6FB03465B007B637B6B5D
:100EDC00234AA2FB03239B0C013BBB62214B224AFE
:100EEC001A60204B40F2E732DA601E4ABB6A53604C
:100EFC001C4B00221A611B4B00229A60194B0022DA
:100F0C009A61184802F090F9034687F8333097F845
:100F1C003330002B1BD1134802F020FA034687F81C
:100F2C00333097F83330002B11D11D2000F0D7FA55
:100F3C007B680F2B08D8002279681D2000F0B3FACB
:100F4C000A4A7B68136002E0012387F8333097F874
:100F5C00333018463837BD4680BD00BF0010024004
:100F6C0083DE1B43D001002000040040040000205D
:100F7C0080B400AFFEE780B400AFFEE780B400AFF2
:100F8C00FEE780B400AFFEE780B400AFFEE780B4AC
:100F9C0000AF00BFBD4680BC704780B400AF00BF3F
:100FAC00BD4680BC704780B400AF00BFBD4680BC5E
:100FBC00704780B400AF00BFBD4680BC70470000D6
:100FCC0080B500AF024800F007FC00BF80BD00BF39
:100FDC00A802002080B500AF024802F011FA00BF51
:100FEC0080BD00BFD001002080B500AF024802F0E8
:100FFC005BFE00BF80BD00BF6002002080B500AF6B
:10100C004FF4806000F0D2FE00BF80BD80B400AF12
:10101C0000BFBD4680BC704780B586B000AF07F1FD
:10102C00080300221A605A609A60DA603B4600227C
:10103C001A605A601E4B1F4A1A601D4B47225A6099
:10104C001B4B00229A601A4B4FF6FE72DA60184B5B
:10105C0000221A61164B00225A61154B00229A612C
:10106C00134802F0E1F80346002B01D0FFF74AFECB
:10107C004FF48053BB6007F1080319460C4802F08B
:10108C00C7FA0346002B01D0FFF73CFE00233B6060
:10109C0000237B603B461946054802F09DFC034645
:1010AC00002B01D0FFF72EFE00BF1837BD4680BDC8
:1010BC0018020020002C014080B485B000AF78608D
:1010CC007B681B68094A93420BD1094B9B69084A00
:1010DC0043F400639361064B9B6903F40063FB606C
:1010EC00FB6800BF1437BD4680BC7047002C014024
:1010FC000010024080B500AF114B124A1A60104B21
:10110C004FF4E1325A600E4B00229A600C4B0022D5
:10111C00DA600B4B00221A61094B0C225A61084B06
:10112C0000229A61064B0022DA61054802F0C4FCE9
:10113C000346002B01D0FFF7E5FD00BF80BD00BFCB
:10114C00600200200038014080B588B000AF7860A4
:10115C0007F1100300221A605A609A60DA607B680B
:10116C001B68334A93425FD1324B9B69314A43F43B
:10117C00804393612F4B9B6903F48043FB60FB68B6
:10118C002C4B9B692B4A43F004039361294B9B69BD
:10119C0003F00403BB60BB684FF400733B61022394
:1011AC007B610323FB6107F110031946224800F011
:1011BC0047FC4FF480633B6100237B610023BB61E0
:1011CC0007F1100319461C4800F03AFC1B4B1C4A53
:1011DC001A601A4B00225A60184B00229A60174B67
:1011EC008022DA60154B00221A61144B00225A61DE
:1011FC00124B20229A61114B0022DA610F4800F049
:10120C007DF90346002B01D0FFF77CFD7B680B4A70
:10121C00DA630A4A7B68536200220021252000F021
:10122C0042F9252000F05BF900BF2037BD4680BD98
:10123C00003801400010024000080140A8020020C4
:10124C0058000240FFF7E2FE0B480C490C4A002301
:10125C0002E0D458C4500433C4188C42F9D3094A60
:10126C00094C002301E013600432A242FBD303F0CB
:10127C003BFCFFF719FC7047000000200C0000201D
:10128C00884B00080C000020F0020020FEE7000054
:10129C0080B500AF084B1B68074A43F0100313607E
:1012AC00032000F0F5F80F20FFF7E4FDFFF7B0FD89
:1012BC000023184680BD00BF0020024080B400AF60
:1012CC00054B1B781A46054B1B681344034A1360E5
:1012DC0000BFBD4680BC704708000020EC02002017
:1012EC0080B400AF024B1B681846BD4680BC7047EB
:1012FC00EC02002080B584B000AF7860FFF7F0FFFF
:10130C00B8607B68FB60FB68B3F1FF3F05D00A4B0C
:10131C001B781A46FB681344FB6000BFFFF7E0FF25
:10132C000246BB68D31AFA689A42F7D800BF00BFCE
:10133C001037BD4680BD00BF0800002080B485B0CA
:10134C0000AF78607B6803F00703FB600C4BDB6835
:10135C00BB60BA684FF6FF031340BB60FB681A0210
:10136C00BB68134343F0BF6343F40033BB60044AD0
:10137C00BB68D36000BF1437BD4680BC704700BF4C
:10138C0000ED00E080B400AF044BDB681B0A03F0F7
:10139C0007031846BD4680BC704700BF00ED00E057
:1013AC0080B483B000AF0346FB7197F90730002B74
:1013BC000BDBFB7903F01F02064997F907305B0939
:1013CC00012000FA02F241F8232000BF0C37BD4681
:1013DC0080BC704700E100E080B483B000AF0346EE
:1013EC003960FB7197F90730002B0ADB3B68DAB2E6
:1013FC000C4997F907301201D2B20B4483F8002341
:10140C000AE03B68DAB20849FB7903F00F03043BAE
:10141C001201D2B20B441A7600BF0C37BD4680BC09
:10142C00704700BF00E100E000ED00E080B489B03F
:10143C0000AFF860B9607A60FB6803F00703FB61EA
:10144C00FB69C3F10703042B28BF0423BB61FB69B1
:10145C000433062B02D9FB69033B00E000237B61BC
:10146C004FF0FF32BB6902FA03F3DA43BB681A4050
:10147C007B699A404FF0FF317B6901FA03F3D94342
:10148C007B680B40134318462437BD4680BC70471D
:10149C0080B582B000AF78607868FFF74FFF00BF6F
:1014AC000837BD4680BD80B586B000AF0346B96035
:1014BC007A60FB7300237B61FFF764FF78617A68C5
:1014CC00B9687869FFF7B2FF024697F90F301146F9
:1014DC001846FFF781FF00BF1837BD4680BD80B5A9
:1014EC0082B000AF0346FB7197F907301846FFF73F
:1014FC0057FF00BF0837BD4680BD000080B485B0E3
:10150C0000AF78600023FB607B68002B01D10123C6
:10151C0043E07B681B681A46224B1344224AA2FB09
:10152C0003231B099A007B681A647B681F4ADA63E1
:10153C007B68022283F821207B681B681B68FB6098
:10154C00FB6823F47F5323F03003FB607B685A68FD
:10155C007B689B681A437B68DB681A437B681B6952
:10156C001A437B685B691A437B689B691A437B68E7
:10157C00DB691343FA681343FB607B681B68FA68EA
:10158C001A607B6800229A637B68012283F8212011
:10159C007B68002283F82020002318461437BD46B0
:1015AC0080BC7047F8FFFDBFCDCCCCCC0000024016
:1015BC0080B586B000AFF860B9607A603B600023FC
:1015CC00FB75FB6893F82030012B01D102234BE013
:1015DC00FB68012283F82020FB6893F82130DBB2F2
:1015EC00012B3AD1FB68022283F82120FB680022F0
:1015FC009A63FB681B681A68FB681B6822F001027F
:10160C001A603B687A68B968F86800F0EBF9FB6817
:10161C00DB6A002B08D0FB681B681A68FB681B6828
:10162C0042F00E021A600FE0FB681B681A68FB6838
:10163C001B6822F004021A60FB681B681A68FB68BE
:10164C001B6842F00A021A60FB681B681A68FB6888
:10165C001B6842F001021A6005E0FB68002283F867
:10166C0020200223FB75FB7D18461837BD4680BD34
:10167C0080B485B000AF78600023FB737B6893F86F
:10168C002130DBB2022B08D07B6804229A637B6882
:10169C00002283F82020012320E07B681B681A6855
:1016AC007B681B6822F00E021A607B681B681A6844
:1016BC007B681B6822F001021A607B681A6C7B68DD
:1016CC00DB6B012101FA02F25A607B68012283F87C
:1016DC0021207B68002283F82020FB7B18461437DE
:1016EC00BD4680BC7047000080B584B000AF786008
:1016FC000023FB737B6893F82130DBB2022B05D0FF
:10170C007B6804229A630123FB7351E07B681B689E
:10171C001A687B681B6822F00E021A607B681B68D3
:10172C001A687B681B6822F001021A607B681B68D0
:10173C00224A934229D07B681B68214A934222D0CB
:10174C007B681B681F4A93421AD07B681B681E4A31
:10175C00934212D07B681B681C4A93420AD07B6868
:10176C001B681B4A934202D14FF480130EE04FF0DA
:10177C0080730BE04FF4803308E04FF4805305E0A6
:10178C004FF4807302E0102300E00123114A5360F0
:10179C007B68012283F821207B68002283F82020BB
:1017AC007B685B6B002B03D07B685B6B786898471E
:1017BC00FB7B18461037BD4680BD00BF08000240B9
:1017CC001C0002403000024044000240580002401D
:1017DC006C0002400000024080B584B000AF78601D
:1017EC007B68DB6B1B68FB607B681B681B68BB60E2
:1017FC007B681B6C04229A40FB681340002B4FD073
:10180C00BB6803F00403002B4AD07B681B681B6881
:10181C0003F02003002B07D17B681B681A687B68D8
:10182C001B6822F004021A607B681B68664A9342AC
:10183C0029D07B681B68654A934222D07B681B6861
:10184C00634A93421AD07B681B68624A934212D057
:10185C007B681B68604A93420AD07B681B685F4AAE
:10186C00934202D14FF480030EE04FF080630BE003
:10187C004FF4802308E04FF4804305E04FF480637D
:10188C0002E0402300E00423554A53607B68DB6A86
:10189C00002B00F094807B68DB6A786898478EE0B8
:1018AC007B681B6C02229A40FB681340002B56D0BD
:1018BC00BB6803F00203002B51D07B681B681B68CC
:1018CC0003F02003002B0BD17B681B681A687B6824
:1018DC001B6822F00A021A607B68012283F821201F
:1018EC007B681B68384A934229D07B681B68374A4F
:1018FC00934222D07B681B68354A93421AD07B688E
:10190C001B68344A934212D07B681B68324A93425C
:10191C000AD07B681B68314A934202D14FF4001302
:10192C000EE04FF000730BE04FF4003308E04FF47F
:10193C00005305E04FF4007302E0202300E0022383
:10194C00274A53607B68002283F820207B689B6ABF
:10195C00002B34D07B689B6A786898472FE07B68B3
:10196C001B6C08229A40FB681340002B28D0BB68E4
:10197C0003F00803002B23D07B681B681A687B6874
:10198C001B6822F00E021A607B681A6C7B68DB6B9A
:10199C00012101FA02F25A607B6801229A637B688A
:1019AC00012283F821207B68002283F820207B68A9
:1019BC001B6B002B04D07B681B6B7868984700BFAF
:1019CC0000BF1037BD4680BD080002401C0002401D
:1019DC003000024044000240580002406C000240BB
:1019EC000000024080B485B000AFF860B9607A6046
:1019FC003B60FB681A6CFB68DB6B012101FA02F29D
:101A0C005A60FB681B683A685A60FB685B68102B6D
:101A1C0008D1FB681B687A689A60FB681B68BA6817
:101A2C00DA6007E0FB681B68BA689A60FB681B68A1
:101A3C007A68DA6000BF1437BD4680BC704700007E
:101A4C0080B48BB000AF7860396000237B620023D8
:101A5C003B6269E101227B6A02FA03F3FB613B689A
:101A6C001B68FA691340BB61BA69FB699A4240F082
:101A7C0058813B685B689A4A93425ED0984A93427D
:101A8C0075D8984A934258D0964A93426FD8964A42
:101A9C00934252D0944A934269D8944A93424CD080
:101AAC00924A934263D8924A934246D0904A9342C8
:101ABC005DD8122B2AD8122B59D801A252F823F038
:101ACC00471B0008211B0008331B0008751B00086E
:101ADC007B1B00087B1B00087B1B00087B1B000882
:101AEC007B1B00087B1B00087B1B00087B1B000872
:101AFC007B1B00087B1B00087B1B00087B1B000862
:101B0C007B1B0008291B00083D1B0008794A9342E7
:101B1C0013D02CE03B68DB683B6229E03B68DB6858
:101B2C0004333B6224E03B68DB6808333B621FE014
:101B3C003B68DB680C333B621AE03B689B68002B0C
:101B4C0002D104233B6213E03B689B68012B05D157
:101B5C0008233B627B68FA691A6109E008233B623F
:101B6C007B68FA695A6103E000233B6200E000BF26
:101B7C00BB69FF2B01D87B6801E07B6804337B6178
:101B8C00BB69FF2B02D87B6A9B0002E07B6A083B97
:101B9C009B003B617B691A680F213B6901FA03F3D7
:101BAC00DB431A40396A3B6901FA03F31A437B6938
:101BBC001A603B685B6803F08053002B00F0B18027
:101BCC004D4B9B694C4A43F0010393614A4B9B6913
:101BDC0003F00103BB60BB68484A7B6A9B08023375
:101BEC0052F82330FB607B6A03F003039B000F2247
:101BFC0002FA03F3DB43FA681340FB607B68404A4C
:101C0C00934213D07B683F4A93420DD07B683E4A87
:101C1C00934207D07B683D4A934201D1032306E0EF
:101C2C00042304E0022302E0012300E000237A6A8B
:101C3C0002F0030292009340FA681343FB602F49B1
:101C4C007B6A9B080233FA6841F823203B685B6887
:101C5C0003F48013002B06D02D4B9A682C49BB69DA
:101C6C0013438B6006E02A4B9A68BB69DB43284917
:101C7C0013408B603B685B6803F40013002B06D0A9
:101C8C00234BDA682249BB691343CB6006E0204B37
:101C9C00DA68BB69DB431E491340CB603B685B6869
:101CAC0003F40033002B06D0194B5A681849BB6952
:101CBC0013434B6006E0164B5A68BB69DB4314496F
:101CCC0013404B603B685B6803F48033002B21D0DE
:101CDC000F4B1A680E49BB6913430B6021E000BF20
:101CEC000000321000003110000022100000211002
:101CFC000000121000001110001002400000014002
:101D0C0000080140000C014000100140001401408B
:101D1C00000401400B4B1A68BB69DB4309491340B3
:101D2C000B607B6A01337B623B681A687B6A22FA20
:101D3C0003F3002B7FF48EAE00BF00BF2C37BD46E3
:101D4C0080BC70470004014080B483B000AF786061
:101D5C000B467B8013467B707B78002B03D07A88F4
:101D6C007B681A6103E07B881A047B681A6100BFE8
:101D7C000C37BD4680BC704780B485B000AF78602E
:101D8C000B467B807B68DB68FB607A88FB681340C2
:101D9C001A04FB68D9437B880B401A437B681A6191
:101DAC0000BF1437BD4680BC7047000080B582B0C0
:101DBC0000AF0346FB80084B5A69FB881340002B8D
:101DCC0006D0054AFB885361FB881846FEF760FF76
:101DDC0000BF0837BD4680BD0004014080B584B00B
:101DEC0000AF78607B68002B01D1012334E07B6865
:101DFC001B684CF6CC421A607B681B6845F2555246
:101E0C001A607B681B687A6852685A607B681B682A
:101E1C007A6892689A60FFF763FAF8600FE0FFF750
:101E2C005FFA0246FB68D31A272B08D97B681B681C
:101E3C00DB6803F00303002B01D003230CE07B6869
:101E4C001B68DB6803F00303002BE8D17B681B687D
:101E5C004AF6AA221A60002318461037BD4680BDE8
:101E6C0080B483B000AF78607B681B684AF6AA2206
:101E7C001A60002318460C37BD4680BC7047000022
:101E8C0080B586B000AF78607B68002B01D1012350
:101E9C0072E27B681B6803F00103002B00F0878063
:101EAC00924B5B6803F00C03042B0CD08F4B5B68DC
:101EBC0003F00C03082B12D18C4B5B6803F48033BA
:101ECC00B3F5803F0BD1894B1B6803F40033002B17
:101EDC006CD07B685B68002B68D101234CE27B687B
:101EEC005B68B3F5803F06D1804B1B687F4A43F497
:101EFC00803313602EE07B685B68002B0CD17B4B2E
:101F0C001B687A4A23F480331360784B1B68774A3A
:101F1C0023F4802313601DE07B685B68B3F5A02F6E
:101F2C000CD1724B1B68714A43F4802313606F4BC6
:101F3C001B686E4A43F4803313600BE06B4B1B68D9
:101F4C006A4A23F480331360684B1B68674A23F496
:101F5C00802313607B685B68002B13D0FFF7C0F9FC
:101F6C00386108E0FFF7BCF902463B69D31A642BD1
:101F7C0001D9032300E25D4B1B6803F40033002BF3
:101F8C00F0D014E0FFF7ACF9386108E0FFF7A8F9DE
:101F9C0002463B69D31A642B01D90323ECE1534B62
:101FAC001B6803F40033002BF0D100E000BF7B680A
:101FBC001B6803F00203002B63D04C4B5B6803F0EF
:101FCC000C03002B0BD0494B5B6803F00C03082B64
:101FDC001CD1464B5B6803F48033002B16D1434B6A
:101FEC001B6803F00203002B05D07B681B69012BD7
:101FFC0001D00123C0E13D4B1B6823F0F8027B6844
:10200C005B69DB00394913430B603AE07B681B6961
:10201C00002B20D0364B01221A60FFF761F9386192
:10202C0008E0FFF75DF902463B69D31A022B01D990
:10203C000323A1E12D4B1B6803F00203002BF0D00E
:10204C002A4B1B6823F0F8027B685B69DB0027498D
:10205C0013430B6015E0264B00221A60FFF740F982
:10206C00386108E0FFF73CF902463B69D31A022BB2
:10207C0001D9032380E11D4B1B6803F00203002BE5
:10208C00F0D17B681B6803F00803002B3AD07B6807
:10209C009B69002B19D0174B01221A60FFF720F90E
:1020AC00386108E0FFF71CF902463B69D31A022B92
:1020BC0001D9032360E10D4B5B6A03F00203002B93
:1020CC00F0D0012000F0FEFA1CE00A4B00221A604E
:1020DC00FFF706F938610FE0FFF702F902463B699A
:1020EC00D31A022B08D9032346E100BF001002408B
:1020FC000000424280044242924B5B6A03F00203AE
:10210C00002BE9D17B681B6803F00403002B00F063
:10211C00A6800023FB758B4BDB6903F08053002BEF
:10212C000DD1884BDB69874A43F08053D361854BD3
:10213C00DB6903F08053BB60BB680123FB75824BEA
:10214C001B6803F48073002B18D17F4B1B687E4AED
:10215C0043F480731360FFF7C3F8386108E0FFF7AE
:10216C00BFF802463B69D31A642B01D9032303E160
:10217C00754B1B6803F48073002BF0D07B68DB6815
:10218C00012B06D16F4B1B6A6E4A43F0010313629D
:10219C002DE07B68DB68002B0CD16A4B1B6A694A0B
:1021AC0023F001031362674B1B6A664A23F0040396
:1021BC0013621CE07B68DB68052B0CD1614B1B6A3E
:1021CC00604A43F0040313625E4B1B6A5D4A43F0A2
:1021DC00010313620BE05B4B1B6A5A4A23F00103A9
:1021EC001362584B1B6A574A23F0040313627B6833
:1021FC00DB68002B15D0FFF773F838610AE0FFF7A6
:10220C006FF802463B69D31A41F28832934201D9E6
:10221C000323B1E04B4B1B6A03F00203002BEED0FF
:10222C0014E0FFF75DF838610AE0FFF759F8024651
:10223C003B69D31A41F28832934201D903239BE0C4
:10224C00404B1B6A03F00203002BEED1FB7D012BEC
:10225C0005D13C4BDB693B4A23F08053D3617B684F
:10226C00DB69002B00F08780364B5B6803F00C03B6
:10227C00082B61D07B68DB69022B46D1334B0022E3
:10228C001A60FFF72DF8386108E0FFF729F80246CD
:10229C003B69D31A022B01D903236DE0294B1B6830
:1022AC0003F00073002BF0D17B681B6AB3F5803F01
:1022BC0008D1244B5B6823F400327B689B6821496E
:1022CC0013434B601F4B5B6823F474127B68196AD1
:1022DC007B685B6A0B431B4913434B601B4B01220E
:1022EC001A60FEF7FDFF386108E0FEF7F9FF0246C1
:1022FC003B69D31A022B01D903233DE0114B1B6818
:10230C0003F00073002BF0D035E0104B00221A6064
:10231C00FEF7E6FF386108E0FEF7E2FF02463B6994
:10232C00D31A022B01D9032326E0064B1B6803F0BA
:10233C000073002BF0D11EE07B68DB69012B07D109
:10234C00012319E00010024000700040600042427E
:10235C000B4B5B68FB60FB6803F480327B681B6A89
:10236C009A4206D1FB6803F470127B685B6A9A424E
:10237C0001D0012300E0002318461837BD4680BD6C
:10238C000010024080B584B000AF786039607B6883
:10239C00002B01D10123D0E06A4B1B6803F007032B
:1023AC003A689A4210D9674B1B6823F007026549BB
:1023BC003B6813430B60634B1B6803F007033A68DD
:1023CC009A4201D00123B8E07B681B6803F002033A
:1023DC00002B20D07B681B6803F00403002B05D076
:1023EC00594B5B68584A43F4E06353607B681B6845
:1023FC0003F00803002B05D0534B5B68524A43F49F
:10240C0060535360504B5B6823F0F0027B689B6811
:10241C004D4913434B607B681B6803F00103002B91
:10242C0040D07B685B68012B07D1474B1B6803F4DA
:10243C000033002B15D101237FE07B685B68022BF6
:10244C0007D1414B1B6803F00073002B09D101230A
:10245C0073E03D4B1B6803F00203002B01D10123F9
:10246C006BE0394B5B6823F003027B685B68364991
:10247C0013434B60FEF734FFF8600AE0FEF730FFC1
:10248C000246FB68D31A41F28832934201D90323E6
:10249C0053E02D4B5B6803F00C027B685B689B0080
:1024AC009A42EBD1274B1B6803F007033A689A4218
:1024BC0010D2244B1B6823F0070222493B681343BC
:1024CC000B60204B1B6803F007033A689A4201D05B
:1024DC00012332E07B681B6803F00403002B08D057
:1024EC00194B5B6823F4E0627B68DB681649134385
:1024FC004B607B681B6803F00803002B09D0124B60
:10250C005B6823F460527B681B69DB000E49134344
:10251C004B6000F021F802460B4B5B681B0903F083
:10252C000F030A49CB5C22FA03F3094A1360094BE7
:10253C001B681846FEF79EFC002318461037BD4654
:10254C0080BD00BF0020024000100240544B000828
:10255C00000000200400002080B487B000AF0023EE
:10256C00FB600023BB6000237B6100237B600023A6
:10257C003B611E4B5B68FB60FB6803F00C03042B98
:10258C0002D0082B03D027E0194B3B6127E0FB68F6
:10259C009B0C03F00F03174AD35C7B60FB6803F4BE
:1025AC008033002B10D0114B5B685B0C03F00103E4
:1025BC00114AD35CBB607B680D4A03FB02F2BB681B
:1025CC00B2FBF3F37B6104E07B680C4A02FB03F380
:1025DC007B617B693B6102E0054B3B6100BF3B6962
:1025EC0018461C37BD4680BC704700BF0010024027
:1025FC0000127A006C4B00087C4B000800093D006F
:10260C0080B400AF024B1B681846BD4680BC7047B7
:10261C000000002080B500AFFFF7F2FF0246054B2B
:10262C005B681B0A03F007030349CB5C22FA03F334
:10263C00184680BD00100240644B000880B500AF06
:10264C00FFF7DEFF0246054B5B68DB0A03F007036E
:10265C000349CB5C22FA03F3184680BD00100240FC
:10266C00644B000880B483B000AF786039607B683D
:10267C000F221A60114B5B6803F003027B685A60EF
:10268C000E4B5B6803F0F0027B689A600B4B5B6847
:10269C0003F4E0627B68DA60084B5B68DB0803F4E8
:1026AC00E0627B681A61064B1B6803F007023B680B
:1026BC001A6000BF0C37BD4680BC7047001002404A
:1026CC000020024080B485B000AF78600A4B1B68D4
:1026DC000A4AA2FB03235B0A7A6802FB03F3FB6042
:1026EC0000BFFB685A1EFA60002BF9D100BF00BF77
:1026FC001437BD4680BC704700000020D34D6210DB
:10270C0080B582B000AF78607B68002B01D10123CB
:10271C0076E07B685B6A002B08D17B685B68B3F55D
:10272C00827F09D07B680022DA6105E07B68002299
:10273C001A617B6800225A617B6800229A627B686E
:10274C0093F85130DBB2002B06D17B68002283F862
:10275C0050207868FEF712FB7B68022283F8512028
:10276C007B681B681A687B681B6822F040021A6041
:10277C007B685B6803F482727B689B6803F4044398
:10278C001A437B68DB6803F400631A437B681B699C
:10279C0003F002031A437B685B6903F001031A43DD
:1027AC007B689B6903F400731A437B68DB6903F055
:1027BC0038031A437B681B6A03F0800342EA030167
:1027CC007B689B6A03F400527B681B680A431A609F
:1027DC007B689B691A0C7B681B6802F004025A60C8
:1027EC007B681B68DA697B681B6822F40062DA611B
:1027FC007B6800225A657B68012283F851200023F4
:10280C0018460837BD4680BD80B588B000AFF8606B
:10281C00B9603B601346FB800023FB77FB6893F8A1
:10282C005030012B01D102232DE1FB68012283F8EA
:10283C005020FEF755FDB861FB88FB82FB6893F8CE
:10284C005130DBB2012B02D00223FB7716E1BB68BF
:10285C00002B02D0FB88002B02D10123FB770DE16A
:10286C00FB68032283F85120FB6800225A65FB6841
:10287C00BA681A63FB68FA889A86FB68FA88DA8663
:10288C00FB6800229A63FB6800229A87FB6800228F
:10289C00DA87FB6800225A64FB6800221A64FB6822
:1028AC009B68B3F5004F0FD1FB681B681A68FB6877
:1028BC001B6822F040021A60FB681B681A68FB68F0
:1028CC001B6842F480421A60FB681B681B6803F0AB
:1028DC004003402B07D0FB681B681A68FB681B6819
:1028EC0042F040021A60FB68DB68B3F5006F4FD111
:1028FC00FB685B68002B02D0FB8A012B42D1FB6882
:10290C001B6B1A88FB681B68DA60FB681B6B9A1CD4
:10291C00FB681A63FB68DB8E9BB2013B9AB2FB68C7
:10292C00DA862FE0FB681B689B6803F00203022B1E
:10293C0012D1FB681B6B1A88FB681B68DA60FB689A
:10294C001B6B9A1CFB681A63FB68DB8E9BB2013B0A
:10295C009AB2FB68DA8615E0FEF7C2FC0246BB6948
:10296C00D31A3A689A4203D83B68B3F1FF3F02D1BD
:10297C003B68002B06D10323FB77FB68012283F80D
:10298C0051207BE0FB68DB8E9BB2002BCAD150E060
:10299C00FB685B68002B02D0FB8A012B44D1FB68DF
:1029AC001A6BFB681B680C3312781A70FB681B6B74
:1029BC005A1CFB681A63FB68DB8E9BB2013B9AB214
:1029CC00FB68DA8630E0FB681B689B6803F0020347
:1029DC00022B13D1FB681A6BFB681B680C33127843
:1029EC001A70FB681B6B5A1CFB681A63FB68DB8E46
:1029FC009BB2013B9AB2FB68DA8615E0FEF770FCDD
:102A0C000246BB69D31A3A689A4203D83B68B3F1C1
:102A1C00FF3F02D13B68002B06D10323FB77FB68F9
:102A2C00012283F8512029E0FB68DB8E9BB2002B3E
:102A3C00C9D1BA693968F86800F0D8FB0346002B95
:102A4C0002D0FB6820225A65FB689B68002B0AD1D8
:102A5C0000233B61FB681B68DB683B61FB681B6800
:102A6C009B683B613B69FB685B6D002B02D00123CB
:102A7C00FB7703E0FB68012283F85120FB680022FE
:102A8C0083F85020FB7F18462037BD4680BD80B5AB
:102A9C0088B002AFF860B9603B601346FB8000233E
:102AAC00FB75FB6893F85130DBB2012B02D002238B
:102ABC00FB75FBE0FB685B68B3F5827F12D1FB68AA
:102ACC009B68002B0ED1FB68042283F85120FA88F6
:102ADC003B6800931346BA68B968F86800F0EFF8E1
:102AEC000346E8E0FB6893F85030012B01D1022338
:102AFC00E1E0FB68012283F85020FEF7F1FB38611E
:102B0C00BB68002B02D0FB88002B02D10123FB7584
:102B1C00CCE0FB68042283F85120FB6800225A6544
:102B2C00FB68BA689A63FB68FA889A87FB68FA882C
:102B3C00DA87FB6800221A63FB6800229A86FB681E
:102B4C000022DA86FB6800221A64FB6800225A64B1
:102B5C00FB689B68B3F5004F0FD1FB681B681A68C4
:102B6C00FB681B6822F040021A60FB681B681A683D
:102B7C00FB681B6822F480421A60FB681B681B68A8
:102B8C0003F04003402B07D0FB681B681A68FB68F6
:102B9C001B6842F040021A60FB68DB68002B6AD1AC
:102BAC0032E0FB681B689B6803F00103012B15D115
:102BBC00FB681B6803F10C02FB689B6B1278D2B2AA
:102BCC001A70FB689B6B5A1CFB689A63FB68DB8F63
:102BDC009BB2013B9AB2FB68DA8715E0FEF780FBEB
:102BEC0002463B69D31A3A689A4203D83B68B3F160
:102BFC00FF3F02D13B68002B06D10323FB75FB681A
:102C0C00012283F8512051E0FB68DB8F9BB2002B33
:102C1C00C7D135E0FB681B689B6803F00103012BEF
:102C2C0013D1FB681B68DA68FB689B6B92B21A8045
:102C3C00FB689B6B9A1CFB689A63FB68DB8F9BB2EF
:102C4C00013B9AB2FB68DA8715E0FEF749FB0246B6
:102C5C003B69D31A3A689A4203D83B68B3F1FF3FF9
:102C6C0002D13B68002B06D10323FB75FB680122C4
:102C7C0083F851201AE0FB68DB8F9BB2002BC9D183
:102C8C003A693968F86800F05FFA0346002B02D005
:102C9C00FB6820225A65FB685B6D002B02D0012378
:102CAC00FB7503E0FB68012283F85120FB680022CE
:102CBC0083F85020FB7D18461837BD4680BD80B583
:102CCC008CB000AFF860B9607A607B800123FB6246
:102CDC00002387F82B30FB6893F85030012B01D17F
:102CEC00022398E1FB68012283F85020FEF7F8FAE2
:102CFC007862FB6893F8513087F82330FB685B6887
:102D0C00FB617B887B8397F82330012B0FD0FB6909
:102D1C00B3F5827F07D1FB689B68002B03D197F832
:102D2C002330042B03D0022387F82B306DE1BB68D2
:102D3C00002B05D07B68002B02D07B88002B03D1A5
:102D4C00012387F82B3060E1FB6893F85130DBB23C
:102D5C00042B03D0FB68052283F85120FB6800226A
:102D6C005A65FB687A689A63FB687A88DA87FB682D
:102D7C007A889A87FB68BA681A63FB687A88DA865D
:102D8C00FB687A889A86FB6800221A64FB6800222A
:102D9C005A64FB681B681B6803F04003402B07D088
:102DAC00FB681B681A68FB681B6842F040021A60DB
:102DBC00FB68DB68B3F5006F7CD1FB685B68002BAC
:102DCC0002D07B8B012B6AD1FB681B6B1A88FB68CA
:102DDC001B68DA60FB681B6B9A1CFB681A63FB6848
:102DEC00DB8E9BB2013B9AB2FB68DA8657E0FB683C
:102DFC001B689B6803F00203022B1BD1FB68DB8E64
:102E0C009BB2002B16D0FB6A012B13D1FB681B6BFA
:102E1C001A88FB681B68DA60FB681B6B9A1CFB68E2
:102E2C001A63FB68DB8E9BB2013B9AB2FB68DA86B5
:102E3C000023FB62FB681B689B6803F00103012BFA
:102E4C0019D1FB68DB8F9BB2002B14D0FB681B687D
:102E5C00DA68FB689B6B92B21A80FB689B6B9A1CBE
:102E6C00FB689A63FB68DB8F9BB2013B9AB2FB68F1
:102E7C00DA870123FB62FEF733FA02467B6AD31A28
:102E8C00BA6B9A420BD8BB6BB3F1FF3F07D003234D
:102E9C0087F82B30FB68012283F85120B5E0FB68E2
:102EAC00DB8E9BB2002BA2D1FB68DB8F9BB2002B7D
:102EBC009DD180E0FB685B68002B02D07B8B012BE3
:102ECC006FD1FB681A6BFB681B680C3312781A7095
:102EDC00FB681B6B5A1CFB681A63FB68DB8E9BB28E
:102EEC00013B9AB2FB68DA865BE0FB681B689B6867
:102EFC0003F00203022B1CD1FB68DB8E9BB2002B70
:102F0C0017D0FB6A012B14D1FB681A6BFB681B688A
:102F1C000C3312781A70FB681B6B5A1CFB681A6313
:102F2C00FB68DB8E9BB2013B9AB2FB68DA8600230E
:102F3C00FB62FB681B689B6803F00103012B19D132
:102F4C00FB68DB8F9BB2002B14D0FB681B68DA6824
:102F5C00FB689B6BD2B21A70FB689B6B5A1CFB68AC
:102F6C009A63FB68DB8F9BB2013B9AB2FB68DA87F2
:102F7C000123FB62FEF7B4F902467B6AD31ABA6BE3
:102F8C009A4203D8BB6BB3F1FF3F02D1BB6B002B52
:102F9C0007D1032387F82B30FB68012283F85120DB
:102FAC0033E0FB68DB8E9BB2002B9ED1FB68DB8F82
:102FBC009BB2002B99D17A6AB96BF86800F016F9BC
:102FCC000346002B06D0012387F82B30FB68202208
:102FDC005A651AE0FB689B68002B0AD100237B61C1
:102FEC00FB681B68DB687B61FB681B689B687B610B
:102FFC007B69FB685B6D002B03D0012387F82B30BA
:10300C0003E0FB68012283F85120FB68002283F85F
:10301C00502097F82B3018463037BD4680BD80B411
:10302C0083B000AF78607B6893F85130DBB2184600
:10303C000C37BD4680BC704780B588B000AFF860D7
:10304C00B9603B601346FB71FEF74AF90246BB6A56
:10305C009B1A3A681344FB61FEF742F9B861394B8D
:10306C001B685B011B0DFA6902FB03F37B6154E0E7
:10307C003B68B3F1FF3F50D0FEF732F90246BB6913
:10308C00D31AFA699A4202D9FB69002B3DD1FB682D
:10309C001B685A68FB681B6822F0E0025A60FB68E8
:1030AC005B68B3F5827F11D1FB689B68B3F5004F69
:1030BC0004D0FB689B68B3F5806F07D1FB681B6875
:1030CC001A68FB681B6822F040021A60FB689B6A56
:1030DC00B3F5005F0FD1FB681B681A68FB681B68AF
:1030EC0022F400521A60FB681B681A68FB681B68A4
:1030FC0042F400521A60FB68012283F85120FB68ED
:10310C00002283F85020032317E07B69002B01D1A8
:10311C000023FB617B69013B7B61FB681B689A6840
:10312C00BB681340BA689A420CBF01230023DBB280
:10313C001A46FB799A429BD1002318462037BD468C
:10314C0080BD00BF0000002080B586B002AFF860E3
:10315C00B9607A60FB685B68B3F5827F11D1FB685C
:10316C009B68B3F5004F04D0FB689B68B3F5806F88
:10317C0007D1FB681B681A68FB681B6822F04002C9
:10318C001A60FB685B68B3F5827F17D1FB689B689C
:10319C00B3F5806F12D17B680093BB6800220121CC
:1031AC00F868FFF749FF0346002B1AD0FB685B6DEC
:1031BC0043F02002FB685A65032313E07B680093FD
:1031CC00BB6800228021F868FFF736FF0346002B0E
:1031DC0007D0FB685B6D43F02002FB685A65032344
:1031EC0000E0002318461037BD4680BD80B586B080
:1031FC0002AFF860B9607A607B680093BB6800220C
:10320C008021F868FFF718FF0346002B07D0FB68F6
:10321C005B6D43F02002FB685A65032300E000233A
:10322C0018461037BD4680BD80B582B000AF7860BF
:10323C007B68002B01D1012341E07B6893F83D3082
:10324C00DBB2002B06D17B68002283F83C20786827
:10325C00FDF732FF7B68022283F83D207B681A68F9
:10326C007B6804331946104600F0BEFA7B680122D5
:10327C0083F846207B68012283F83E207B6801227C
:10328C0083F83F207B68012283F840207B68012271
:10329C0083F841207B68012283F842207B6801225D
:1032AC0083F843207B68012283F844207B68012249
:1032BC0083F845207B68012283F83D2000231846C3
:1032CC000837BD4680BD000080B485B000AF786083
:1032DC007B6893F83D30DBB2012B01D0012332E047
:1032EC007B68022283F83D207B681B68184A934256
:1032FC000ED07B681B68B3F1804F09D07B681B68CC
:10330C00144A934204D07B681B68134A934211D130
:10331C007B681B689B6803F00703FB60FB68062B4C
:10332C0010D07B681B681A687B681B6842F001022E
:10333C001A6007E07B681B681A687B681B6842F0A0
:10334C0001021A60002318461437BD4680BC704732
:10335C00002C0140000400400008004080B485B0FF
:10336C0000AF78607B6893F83D30DBB2012B01D065
:10337C0001233AE07B68022283F83D207B681B68BE
:10338C00DA687B681B6842F00102DA607B681B68B4
:10339C00184A93420ED07B681B68B3F1804F09D05A
:1033AC007B681B68144A934204D07B681B68134AE1
:1033BC00934211D17B681B689B6803F00703FB6089
:1033CC00FB68062B10D07B681B681A687B681B682F
:1033DC0042F001021A6007E07B681B681A687B6880
:1033EC001B6842F001021A60002318461437BD46D0
:1033FC0080BC7047002C01400004004000080040D5
:10340C0080B582B000AF78607B681B681B6903F0E5
:10341C000203022B22D17B681B68DB6803F00203DA
:10342C00022B1BD17B681B686FF002021A617B6850
:10343C0001221A777B681B689B6903F00303002B3E
:10344C0003D0786800F0B4F905E0786800F0A7F9CB
:10345C00786800F0B6F97B6800221A777B681B68E5
:10346C001B6903F00403042B22D17B681B68DB6807
:10347C0003F00403042B1BD17B681B686FF0040260
:10348C001A617B6802221A777B681B689B6903F4BC
:10349C004073002B03D0786800F08AF905E0786857
:1034AC0000F07DF9786800F08CF97B6800221A77BF
:1034BC007B681B681B6903F00803082B22D17B680F
:1034CC001B68DB6803F00803082B1BD17B681B68A7
:1034DC006FF008021A617B6804221A777B681B68FC
:1034EC00DB6903F00303002B03D0786800F060F96C
:1034FC0005E0786800F053F9786800F062F97B68B1
:10350C0000221A777B681B681B6903F01003102BD1
:10351C0022D17B681B68DB6803F01003102B1BD1D6
:10352C007B681B686FF010021A617B6808221A779F
:10353C007B681B68DB6903F44073002B03D078684D
:10354C0000F036F905E0786800F029F9786800F0A9
:10355C0038F97B6800221A777B681B681B6903F0BB
:10356C000103012B0ED17B681B68DB6803F00103A0
:10357C00012B07D17B681B686FF001021A61786818
:10358C00FDF7AEFB7B681B681B6903F08003802B87
:10359C000ED17B681B68DB6803F08003802B07D19E
:1035AC007B681B686FF080021A61786800F07BFA08
:1035BC007B681B681B6903F04003402B0ED17B68B2
:1035CC001B68DB6803F04003402B07D17B681B684A
:1035DC006FF040021A61786800F0FCF87B681B6899
:1035EC001B6903F02003202B0ED17B681B68DB6862
:1035FC0003F02003202B07D17B681B686FF020029F
:10360C001A61786800F046FA00BF0837BD4680BDE5
:10361C0080B584B000AF786039600023FB737B68A1
:10362C0093F83C30012B01D10223B4E07B680122DA
:10363C0083F83C207B68022283F83D207B681B6862
:10364C009B68BB60BB6823F07703BB60BB6823F44B
:10365C007F43BB607B681B68BA689A603B681B68D9
:10366C00B3F5005F3ED0B3F5005F00F28780B3F591
:10367C00805F00F08680B3F5805F7FD8702B1AD006
:10368C00702B7BD8602B50D0602B77D8502B3CD034
:10369C00502B73D8402B58D0402B6FD8302B64D084
:1036AC00302B6BD8202B60D0202B67D8002B5CD014
:1036BC00102B5AD062E07B6818683B6899683B68AD
:1036CC005A683B68DB6800F068F97B681B689B688C
:1036DC00BB60BB6843F07703BB607B681B68BA6850
:1036EC009A604FE07B6818683B6899683B685A6839
:1036FC003B68DB6800F051F97B681B689A687B6853
:10370C001B6842F480429A603CE07B6818683B6816
:10371C0059683B68DB681A4600F0C8F87B681B6880
:10372C005021184600F01FF92CE07B6818683B68A4
:10373C0059683B68DB681A4600F0E6F87B681B6842
:10374C006021184600F00FF91CE07B6818683B6894
:10375C0059683B68DB681A4600F0A8F87B681B6860
:10376C004021184600F0FFF80CE07B681A683B68B3
:10377C001B681946104600F0F6F803E00123FB73B2
:10378C0000E000BF7B68012283F83D207B680022AB
:10379C0083F83C20FB7B18461037BD4680BD80B4B7
:1037AC0083B000AF786000BF0C37BD4680BC70475B
:1037BC0080B483B000AF786000BF0C37BD4680BCCE
:1037CC00704780B483B000AF786000BF0C37BD4643
:1037DC0080BC704780B483B000AF786000BF0C37FA
:1037EC00BD4680BC7047000080B485B000AF7860E7
:1037FC0039607B681B68FB607B68294A93420BD05D
:10380C007B68B3F1804F07D07B68264A934203D084
:10381C007B68254A934208D1FB6823F07003FB6058
:10382C003B685B68FA681343FB607B681C4A9342F5
:10383C000BD07B68B3F1804F07D07B68194A934259
:10384C0003D07B68184A934208D1FB6823F4407379
:10385C00FB603B68DB68FA681343FB60FB6823F092
:10386C0080023B685B691343FB607B68FA681A60F3
:10387C003B689A687B68DA623B681A687B689A6274
:10388C007B68074A934203D13B681A697B681A63C9
:10389C007B6801225A6100BF1437BD4680BC70475B
:1038AC00002C0140000400400008004080B487B0A8
:1038BC0000AFF860B9607A60FB681B6A7B61FB68DB
:1038CC001B6A23F00102FB681A62FB689B693B616F
:1038DC003B6923F0F0033B617B681B013A6913439E
:1038EC003B617B6923F00A037B617A69BB681343F4
:1038FC007B61FB683A699A61FB687A691A6200BF5E
:10390C001C37BD4680BC704780B487B000AFF860F0
:10391C00B9607A60FB681B6A7B61FB681B6A23F0E9
:10392C001002FB681A62FB689B693B613B6923F4DC
:10393C0070433B617B681B033A6913433B617B69B2
:10394C0023F0A0037B61BB681B017A6913437B6185
:10395C00FB683A699A61FB687A691A6200BF1C3786
:10396C00BD4680BC704780B485B000AF78603960CC
:10397C007B689B68FB60FB6823F07003FB603A6814
:10398C00FB68134343F00703FB607B68FA689A609B
:10399C0000BF1437BD4680BC704780B487B000AF01
:1039AC00F860B9607A603B60FB689B687B617B69FF
:1039BC0023F47F437B613B681A027B681A43BB6824
:1039CC0013437A6913437B61FB687A699A6000BF81
:1039DC001C37BD4680BC704780B485B000AF7860A2
:1039EC0039607B6893F83C30012B01D1022346E00F
:1039FC007B68012283F83C207B68022283F83D20FF
:103A0C007B681B685B68FB607B681B689B68BB60A2
:103A1C00FB6823F07003FB603B681B68FA68134378
:103A2C00FB607B681B68FA685A607B681B68164AE7
:103A3C0093420ED07B681B68B3F1804F09D07B6832
:103A4C001B68124A934204D07B681B68104A93424D
:103A5C000CD1BB6823F08003BB603B685B68BA6821
:103A6C001343BB607B681B68BA689A607B68012251
:103A7C0083F83D207B68002283F83C200023184605
:103A8C001437BD4680BC7047002C01400004004038
:103A9C000008004080B483B000AF786000BF0C37E2
:103AAC00BD4680BC704780B483B000AF786000BF67
:103ABC000C37BD4680BC704780B582B000AF7860D3
:103ACC007B68002B01D1012342E07B6893F84130E5
:103ADC00DBB2002B06D17B68002283F8402078688B
:103AEC00FDF732FB7B68242283F841207B681B683E
:103AFC00DA687B681B6822F40052DA60786800F0A0
:103B0C005DFF7B681B681A697B681B6822F4904216
:103B1C001A617B681B685A697B681B6822F02A0251
:103B2C005A617B681B68DA687B681B6842F4005238
:103B3C00DA607B6800225A647B68202283F841207B
:103B4C007B68202283F842207B6800225A63002382
:103B5C0018460837BD4680BD80B58AB002AFF86004
:103B6C00B9603B601346FB8000237B61FB6893F8D4
:103B7C004130DBB2202B6DD1BB68002B02D0FB880F
:103B8C00002B01D1012366E0FB6800225A64FB681C
:103B9C00212283F84120FDF7A3FB7861FB68FA88AA
:103BAC009A84FB68FA88DA84FB689B68B3F5805FBB
:103BBC0008D1FB681B69002B04D10023FB61BB6897
:103BCC00BB6103E0BB68FB610023BB612AE03B687F
:103BDC0000937B6900228021F86800F024FC0346E6
:103BEC00002B01D0032336E0FB69002B0BD1BB6902
:103BFC001B881A46FB681B68C2F308025A60BB6933
:103C0C000233BB6107E0FB691A78FB681B685A60DA
:103C1C00FB690133FB61FB68DB8C9BB2013B9AB205
:103C2C00FB68DA84FB68DB8C9BB2002BCFD13B6842
:103C3C0000937B6900224021F86800F0F4FB0346F6
:103C4C00002B01D0032306E0FB68202283F84120DF
:103C5C00002300E0022318462037BD4680BD80B506
:103C6C0084B000AFF860B9601346FB80FB6893F832
:103C7C004230DBB2202B12D1BB68002B02D0FB8868
:103C8C00002B01D101230BE0FB6800221A63FB8897
:103C9C001A46B968F86800F035FC034600E00223C8
:103CAC0018461037BD4680BD80B5BAB000AF7860FD
:103CBC007B681B681B68C7F8E4307B681B68DB6893
:103CCC00C7F8E0307B681B685B69C7F8DC30002301
:103CDC00C7F8D8300023C7F8D430D7F8E43003F055
:103CEC000F03C7F8D830D7F8D830002B0FD1D7F83E
:103CFC00E43003F02003002B09D0D7F8E03003F0B8
:103D0C002003002B03D0786800F09AFD5BE2D7F813
:103D1C00D830002B00F0DE80D7F8DC3003F0010344
:103D2C00002B06D1D7F8E03003F49073002B00F091
:103D3C00D180D7F8E43003F00103002B0BD0D7F877
:103D4C00E03003F48073002B05D07B685B6C43F090
:103D5C0001027B685A64D7F8E43003F00403002BAB
:103D6C000BD0D7F8DC3003F00103002B05D07B68B7
:103D7C005B6C43F002027B685A64D7F8E43003F0C2
:103D8C000203002B0BD0D7F8DC3003F00103002B1F
:103D9C0005D07B685B6C43F004027B685A64D7F8EF
:103DAC00E43003F00803002B11D0D7F8E03003F017
:103DBC002003002B05D1D7F8DC3003F00103002BD6
:103DCC0005D07B685B6C43F008027B685A647B68A7
:103DDC005B6C002B00F0F281D7F8E43003F0200389
:103DEC00002B08D0D7F8E03003F02003002B02D0D2
:103DFC00786800F025FD7B681B685B6903F0400365
:103E0C00002B14BF01230023DBB2C7F8D4307B682E
:103E1C005B6C03F00803002B03D1D7F8D430002BD4
:103E2C004FD0786800F02FFC7B681B685B6903F04F
:103E3C004003002B41D07B681B681433C7F89C30BF
:103E4C00D7F89C3053E8003FC7F89830D7F8983033
:103E5C0023F04003C7F8D0307B681B681433D7F8C5
:103E6C00D020C7F8A820C7F8A430D7F8A410D7F8EA
:103E7C00A82041E80023C7F8A030D7F8A030002BC9
:103E8C00D9D17B68DB6B002B13D07B68DB6B7E4A54
:103E9C005A637B68DB6B1846FDF726FC0346002B48
:103EAC0016D07B68DB6B5B6B7A68D26B10469847DD
:103EBC000EE0786800F0A5F90AE0786800F0A1F946
:103ECC0006E0786800F09DF97B6800225A6475E181
:103EDC0000BF73E17B681B6B012B40F04F81D7F85F
:103EEC00E43003F01003002B00F04881D7F8E030E9
:103EFC0003F01003002B00F041810023BB607B68B2
:103F0C001B681B68BB607B681B685B68BB60BB681D
:103F1C007B681B685B6903F04003002B00F0B680E4
:103F2C007B68DB6B1B685B68A7F8BE30B7F8BE30EC
:103F3C00002B00F045817B689B8DB7F8BE209A4220
:103F4C0080F03E817B68B7F8BE20DA857B68DB6B3E
:103F5C009B69202B00F088807B681B680C33C7F8AA
:103F6C008830D7F8883053E8003FC7F88430D7F84A
:103F7C00843023F48073C7F8B8307B681B680C332B
:103F8C00D7F8B820C7F89420C7F89030D7F890101D
:103F9C00D7F8942041E80023C7F88C30D7F88C3040
:103FAC00002BD9D17B681B6814337B677B6F53E87C
:103FBC00003F3B673B6F23F00103C7F8B4307B68CD
:103FCC001B681433D7F8B420C7F88020FB67F96F4F
:103FDC00D7F8802041E80023BB67BB6F002BE1D1F1
:103FEC007B681B6814333B663B6E53E8003FFB65F4
:103FFC00FB6D23F04003C7F8B0307B681B681433AB
:10400C00D7F8B020FA66BB66B96EFA6E41E80023A9
:10401C007B667B6E002BE3D17B68202283F84220E9
:10402C007B6800221A637B681B680C33FB64FB6C97
:10403C0053E8003FBB64BB6C23F01003C7F8AC30F3
:10404C007B681B680C33D7F8AC20BA657B65796D3F
:10405C00BA6D41E800233B653B6D002BE3D17B68D7
:10406C00DB6B1846FDF704FB7B6802225A637B6806
:10407C009A8D7B68DB8D9BB2D31A9BB219467868FC
:10408C0000F0C8F89CE000BF574700087B689A8D89
:10409C007B68DB8D9BB2D31AA7F8CE307B68DB8DA7
:1040AC009BB2002B00F08E80B7F8CE30002B00F0C6
:1040BC0089807B681B680C33BB63BB6B53E8003F88
:1040CC007B637B6B23F49073C7F8C8307B681B68E9
:1040DC000C33D7F8C8207A643B64396C7A6C41E8AD
:1040EC000023FB63FB6B002BE3D17B681B68143351
:1040FC007B627B6A53E8003F3B623B6A23F001031F
:10410C00C7F8C4307B681B681433D7F8C4203A63F3
:10411C00FB62F96A3A6B41E80023BB62BB6A002B75
:10412C00E3D17B68202283F842207B6800221A634B
:10413C007B681B680C333B613B6953E8003FFB60B9
:10414C00FB6823F01003C7F8C0307B681B680C3386
:10415C00D7F8C020FA61BB61B969FA6941E800235C
:10416C007B617B69002BE3D17B6802225A63B7F831
:10417C00CE301946786800F04DF823E0D7F8E430DB
:10418C0003F08003002B09D0D7F8E03003F0800354
:10419C00002B03D0786800F0ECFA14E0D7F8E43088
:1041AC0003F04003002B0ED0D7F8E03003F04003AF
:1041BC00002B08D0786800F02BFB04E000BF02E075
:1041CC0000BF00E000BFE837BD4680BD80B483B0BF
:1041DC0000AF786000BF0C37BD4680BC704780B420
:1041EC0083B000AF786000BF0C37BD4680BC704711
:1041FC0080B483B000AF786000BF0C37BD4680BC84
:10420C00704780B483B000AF786000BF0C37BD46F8
:10421C0080BC704780B483B000AF78600B467B8065
:10422C0000BF0C37BD4680BC704780B59CB000AF5A
:10423C0078607B685B6AFB667B681B681B6803F0B5
:10424C002003002B72D1FB6E0022DA85FB6E1B68FB
:10425C000C33FB64FB6C53E8003FBB64BB6C23F476
:10426C008073BB66FB6E1B680C33BA6EBA657B65DC
:10427C00796DBA6D41E800233B653B6D002BE5D1B0
:10428C00FB6E1B681433BB63BB6B53E8003F7B6353
:10429C007B6B23F001037B66FB6E1B6814337A6E19
:1042AC007A643B64396C7A6C41E80023FB63FB6BEA
:1042BC00002BE5D1FB6E1B6814337B627B6A53E8E1
:1042CC00003F3B623B6A23F040033B66FB6E1B687E
:1042DC0014333A6E3A63FB62F96A3A6B41E8002395
:1042EC00BB62BB6A002BE5D1FB6E202283F8422017
:1042FC00FB6E1B6B012B19D1FB6E1B680C333B61E6
:10430C003B6953E8003FFB60FB6823F01003FB653F
:10431C00FB6E1B680C33FA6DFA61BB61B969FA6903
:10432C0041E800237B617B69002BE5D1FB6E002209
:10433C005A63FB6E1B6B012B06D1FB6E9B8D1946D2
:10434C00F86EFFF767FF02E0F86EFFF748FF00BF5B
:10435C007037BD4680BD80B584B000AF78607B6897
:10436C005B6AFB60FB6801225A63FB681B6B012BC9
:10437C0008D1FB689B8D5B089BB21946F868FFF768
:10438C0049FF02E0F868FFF733FF00BF1037BD4666
:10439C0080BD80B584B000AF78600023FB607B6883
:1043AC005B6ABB60BB681B685B6903F08003002B16
:1043BC0014BF01230023DBB2FB60BB6893F84130D0
:1043CC00DBB2212B08D1FB68002B05D0BB68002287
:1043DC00DA84B86800F030F9BB681B685B6903F0DD
:1043EC004003002B14BF01230023DBB2FB60BB682E
:1043FC0093F84230DBB2222B08D1FB68002B05D09E
:10440C00BB680022DA85B86800F03DF9BB685B6CCC
:10441C0043F01002BB685A64B868FFF7F2FE00BFA5
:10442C001037BD4680BD80B590B000AFF860B96064
:10443C003B601346FB7150E0BB6CB3F1FF3F4CD0BB
:10444C00BB6C002B07D0FCF74BFF02463B68D31A22
:10445C00BA6C9A4241D2FB681B680C33BB62BB6AD4
:10446C0053E8003F7B627B6A23F4D073FB63FB68E9
:10447C001B680C33FA6B7A633B63396B7A6B41E8DC
:10448C000023FB62FB6A002BE5D1FB681B6814332D
:10449C007B617B6953E8003F3B613B6923F001037F
:1044AC00BB63FB681B681433BA6B3A62FB61F96936
:1044BC003A6A41E80023BB61BB69002BE5D1FB687C
:1044CC00202283F84120FB68202283F84220FB68DD
:1044DC00002283F8402003230FE0FB681B681A6856
:1044EC00BB681340BA689A420CBF01230023DBB2AD
:1044FC001A46FB799A429FD0002318464037BD4696
:10450C0080BD000080B598B000AFF860B96013466C
:10451C00FB80BA68FB689A62FB68FA889A85FB682C
:10452C0000225A64FB68222283F84220FB68DB6B72
:10453C003E4A9A62FB68DB6B3D4ADA62FB68DB6BD6
:10454C003C4A1A63FB68DB6B00225A6307F10803D1
:10455C00FB65FB68D86BFB681B6804331946FB6D65
:10456C001A68FB88FDF724F800233B61FB681B6885
:10457C001B683B61FB681B685B683B613B69FB68C4
:10458C001B69002B19D0FB681B680C333B643B6C1C
:10459C0053E8003FFB63FB6B43F48073BB65FB6824
:1045AC001B680C33BA6DFA64BB64B96CFA6C41E8E5
:1045BC0000237B647B6C002BE5D1FB681B681433F8
:1045CC00FB62FB6A53E8003FBB62BB6A43F001032A
:1045DC007B65FB681B6814337A6DBA637B63796BFC
:1045EC00BA6B41E800233B633B6B002BE5D1FB68C6
:1045FC001B681433BB61BB6953E8003F7B617B696B
:10460C0043F040033B65FB681B6814333A6D7A62D8
:10461C003B62396A7A6A41E80023FB61FB69002B33
:10462C00E5D1002318466037BD4680BD37420008EF
:10463C00634300089F43000880B489B000AF7860E2
:10464C007B681B680C33FB60FB6853E8003FBB6066
:10465C00BB6823F0C003FB617B681B680C33FA69F1
:10466C00BA617B617969BA6941E800233B613B69B6
:10467C00002BE5D17B68202283F8412000BF243732
:10468C00BD4680BC704780B495B000AF78607B6845
:10469C001B680C337B637B6B53E8003F3B633B6BCA
:1046AC0023F49073FB647B681B680C33FA6C3A64DC
:1046BC00FB63F96B3A6C41E80023BB63BB6B002BCB
:1046CC00E5D17B681B6814333B623B6A53E8003FBF
:1046DC00FB61FB6923F00103BB647B681B6814332B
:1046EC00BA6CFA62BB62B96AFA6A41E800237B626F
:1046FC007B6A002BE5D17B681B6B012B19D17B6886
:10470C001B680C33FB60FB6853E8003FBB60BB6865
:10471C0023F010037B647B681B680C337A6CBA61E2
:10472C007B617969BA6941E800233B613B69002BE5
:10473C00E5D17B68202283F842207B6800221A6333
:10474C0000BF5437BD4680BC704780B584B000AF05
:10475C0078607B685B6AFB60FB680022DA85FB682B
:10476C000022DA84F868FFF74CFD00BF1037BD4615
:10477C0080BD80B485B000AF78607B6893F8413021
:10478C00DBB2212B3ED17B689B68B3F5805F14D1E3
:10479C007B681B69002B10D17B681B6AFB60FB6874
:1047AC001B881A467B681B68C2F308025A607B6838
:1047BC001B6A9A1C7B681A6208E07B681B6A591C8E
:1047CC007A6811621A787B681B685A607B68DB8C8C
:1047DC009BB2013B9BB27A681946D184002B0FD156
:1047EC007B681B68DA687B681B6822F08002DA60E1
:1047FC007B681B68DA687B681B6842F04002DA60F1
:10480C00002300E0022318461437BD4680BC7047D5
:10481C0080B582B000AF78607B681B68DA687B6813
:10482C001B6822F04002DA607B68202283F841206A
:10483C007868FFF7CBFC002318460837BD4680BDCF
:10484C0080B58CB000AF78607B6893F84230DBB2F7
:10485C00222B40F0AE807B689B68B3F5805F17D14C
:10486C007B681B69002B13D10023FB627B689B6A5E
:10487C00BB627B681B685B689BB2C3F308039AB28C
:10488C00BB6A1A807B689B6A9A1C7B689A6226E0DA
:10489C007B689B6AFB620023BB627B689B68B3F5F9
:1048AC00805F07D07B689B68002B0AD17B681B69F3
:1048BC00002B06D17B681B685B68DAB2FB6A1A7046
:1048CC0008E07B681B685B68DBB203F07F03DAB23D
:1048DC00FB6A1A707B689B6A5A1C7B689A627B68BD
:1048EC00DB8D9BB2013B9BB27A681946D185002BBC
:1048FC005DD17B681B68DA687B681B6822F020023C
:10490C00DA607B681B68DA687B681B6822F480724B
:10491C00DA607B681B685A697B681B6822F00102AD
:10492C005A617B68202283F842207B6800225A63FC
:10493C007B681B6B012B35D17B6800221A637B686B
:10494C001B680C337B617B6953E8003F3B613B691F
:10495C0023F010037B627B681B680C337A6A3A6223
:10496C00FB61F9693A6A41E80023BB61BB69002B22
:10497C00E5D17B681B681B6803F01003102B0AD170
:10498C000023FB607B681B681B68FB607B681B68F3
:10499C005B68FB60FB687B689B8D19467868FFF74A
:1049AC0039FC02E07868FFF71AFC002302E00023D0
:1049BC0000E0022318463037BD4680BD80B584B078
:1049CC0000AF78607B681B681B6923F440517B68DF
:1049DC00DA687B681B680A431A617B689A687B6893
:1049EC001B691A437B685B691343BB607B681B685C
:1049FC00DB6823F4B05323F00C037A681268B968AF
:104A0C000B43D3607B681B685B6923F440717B6844
:104A1C009A697B681B680A435A617B681B682C4A3D
:104A2C00934203D1FDF70AFEF86002E0FDF7F2FDB8
:104A3C00F860FA6813469B0013449A001A447B688A
:104A4C005B689B00B2FBF3F3224AA2FB03235B09D6
:104A5C001901FA6813469B0013449A001A447B68A8
:104A6C005B689B00B2FBF3F21A4BA3FB02035B09DE
:104A7C00642000FB03F3D31A1B013233154AA2FB4B
:104A8C0003235B0903F0F0031944FA6813469B00F7
:104A9C0013449A001A447B685B689B00B2FBF3F2E8
:104AAC000C4BA3FB02035B09642000FB03F3D31A3A
:104ABC001B013233074AA2FB03235B0903F00F02ED
:104ACC007B681B680A449A6000BF1037BD4680BDE6
:104ADC00003801401F85EB5103460244934200D13C
:104AEC00704703F8011BF9E770B500260C4D0D4C0F
:104AFC00641BA410A64209D100F01AF800260A4D36
:104B0C000A4C641BA410A64205D170BD55F8043B99
:104B1C0098470136EEE755F8043B98470136F2E723
:104B2C00804B0008804B0008804B0008844B000829
:104B3C00F8B500BFF8BC08BC9E467047F8B500BF7E
:084B4C00F8BC08BC9E4670474E
:104B54000000000000000000010203040607080929
:104B6400000000000102030402030405060708090B
:0C4B74000A0B0C0D0E0F101001020000C7
:044B800031010008F7
:044B84000D01000817
:0C4B88000024F4001000000001000000F8
:04000005080012518C
:00000001FF
